{"contracts/DaoVoting.sol":{"DaoVoting":{"abi":[{"inputs":[],"stateMutability":"nonpayable","type":"constructor"},{"anonymous":false,"inputs":[{"indexed":true,"internalType":"uint256","name":"id","type":"uint256"},{"indexed":false,"internalType":"bool","name":"approved","type":"bool"}],"name":"ReportResolved","type":"event"},{"anonymous":false,"inputs":[{"indexed":true,"internalType":"uint256","name":"id","type":"uint256"},{"indexed":false,"internalType":"string","name":"description","type":"string"},{"indexed":false,"internalType":"address","name":"submitter","type":"address"}],"name":"ReportSubmitted","type":"event"},{"anonymous":false,"inputs":[{"indexed":true,"internalType":"address","name":"user","type":"address"},{"indexed":false,"internalType":"uint256","name":"amount","type":"uint256"}],"name":"StakeChanged","type":"event"},{"anonymous":false,"inputs":[{"indexed":true,"internalType":"address","name":"from","type":"address"},{"indexed":true,"internalType":"address","name":"to","type":"address"}],"name":"VoteDelegated","type":"event"},{"anonymous":false,"inputs":[{"indexed":true,"internalType":"uint256","name":"id","type":"uint256"},{"indexed":false,"internalType":"address","name":"voter","type":"address"},{"indexed":false,"internalType":"bool","name":"voteYes","type":"bool"},{"indexed":false,"internalType":"uint256","name":"weight","type":"uint256"}],"name":"Voted","type":"event"},{"inputs":[],"name":"VOTING_PERIOD","outputs":[{"internalType":"uint256","name":"","type":"uint256"}],"stateMutability":"view","type":"function"},{"inputs":[],"name":"admin","outputs":[{"internalType":"address","name":"","type":"address"}],"stateMutability":"view","type":"function"},{"inputs":[{"internalType":"address","name":"to","type":"address"}],"name":"delegateVote","outputs":[],"stateMutability":"nonpayable","type":"function"},{"inputs":[{"internalType":"address","name":"","type":"address"}],"name":"delegates","outputs":[{"internalType":"address","name":"","type":"address"}],"stateMutability":"view","type":"function"},{"inputs":[{"internalType":"address","name":"voter","type":"address"}],"name":"getEffectiveVoter","outputs":[{"internalType":"address","name":"","type":"address"}],"stateMutability":"view","type":"function"},{"inputs":[{"internalType":"uint256","name":"_id","type":"uint256"}],"name":"getReport","outputs":[{"internalType":"string","name":"description","type":"string"},{"internalType":"string","name":"harasserName","type":"string"},{"internalType":"string","name":"evidenceCID","type":"string"},{"internalType":"uint256","name":"yesVotes","type":"uint256"},{"internalType":"uint256","name":"noVotes","type":"uint256"},{"internalType":"address","name":"submitter","type":"address"},{"internalType":"bool","name":"resolved","type":"bool"},{"internalType":"bool","name":"canVote","type":"bool"},{"internalType":"bool","name":"isVotingOpen","type":"bool"}],"stateMutability":"view","type":"function"},{"inputs":[],"name":"minimumStake","outputs":[{"internalType":"uint256","name":"","type":"uint256"}],"stateMutability":"view","type":"function"},{"inputs":[],"name":"reportId","outputs":[{"internalType":"uint256","name":"","type":"uint256"}],"stateMutability":"view","type":"function"},{"inputs":[{"internalType":"uint256","name":"","type":"uint256"}],"name":"reportTimestamps","outputs":[{"internalType":"uint256","name":"","type":"uint256"}],"stateMutability":"view","type":"function"},{"inputs":[{"internalType":"uint256","name":"","type":"uint256"}],"name":"reports","outputs":[{"internalType":"string","name":"description","type":"string"},{"internalType":"string","name":"harasserName","type":"string"},{"internalType":"string","name":"evidenceCID","type":"string"},{"internalType":"uint256","name":"yesVotes","type":"uint256"},{"internalType":"uint256","name":"noVotes","type":"uint256"},{"internalType":"address","name":"submitter","type":"address"},{"internalType":"bool","name":"resolved","type":"bool"}],"stateMutability":"view","type":"function"},{"inputs":[{"internalType":"uint256","name":"_id","type":"uint256"}],"name":"resolveReport","outputs":[],"stateMutability":"nonpayable","type":"function"},{"inputs":[{"internalType":"uint256","name":"newStake","type":"uint256"}],"name":"setMinimumStake","outputs":[],"stateMutability":"nonpayable","type":"function"},{"inputs":[],"name":"stakeTokens","outputs":[],"stateMutability":"payable","type":"function"},{"inputs":[{"internalType":"string","name":"_description","type":"string"},{"internalType":"string","name":"_harasserName","type":"string"},{"internalType":"string","name":"_evidenceCID","type":"string"}],"name":"submitReport","outputs":[],"stateMutability":"nonpayable","type":"function"},{"inputs":[{"internalType":"uint256","name":"amount","type":"uint256"}],"name":"unstakeTokens","outputs":[],"stateMutability":"nonpayable","type":"function"},{"inputs":[{"internalType":"uint256","name":"_id","type":"uint256"},{"internalType":"bool","name":"_voteYes","type":"bool"}],"name":"voteOnReport","outputs":[],"stateMutability":"nonpayable","type":"function"},{"inputs":[{"internalType":"address","name":"","type":"address"}],"name":"votingPower","outputs":[{"internalType":"uint256","name":"","type":"uint256"}],"stateMutability":"view","type":"function"},{"inputs":[],"name":"withdrawFees","outputs":[],"stateMutability":"nonpayable","type":"function"}],"evm":{"bytecode":{"linkReferences":{},"object":"608060405267016345785d8a000060065534801561001c57600080fd5b50336000806101000a81548173ffffffffffffffffffffffffffffffffffffffff021916908373ffffffffffffffffffffffffffffffffffffffff1602179055506125478061006c6000396000f3fe6080604052600436106101095760003560e01c80636dfa5e6111610095578063c942adf711610064578063c942adf714610381578063ce46643b146103c4578063ec5ffac2146103ce578063f851a440146103f9578063fb45a7c21461042457610109565b80636dfa5e61146102c7578063b1610d7e146102f0578063b31e1d4d1461031b578063c07473f61461034457610109565b8063233e9903116100dc578063233e9903146101dc578063476343ee146102055780634e7f9b191461021c578063587cde1e14610261578063608e4dd01461029e57610109565b806308ee2d721461010e5780630bacd0c41461014b5780630ca7091414610188578063115e647b146101b3575b600080fd5b34801561011a57600080fd5b506101356004803603810190610130919061179d565b61044d565b60405161014291906117d9565b60405180910390f35b34801561015757600080fd5b50610172600480360381019061016d919061182a565b61054f565b60405161017f9190611866565b60405180910390f35b34801561019457600080fd5b5061019d610567565b6040516101aa9190611866565b60405180910390f35b3480156101bf57600080fd5b506101da60048036038101906101d591906118b9565b61056d565b005b3480156101e857600080fd5b5061020360048036038101906101fe919061182a565b61090f565b005b34801561021157600080fd5b5061021a6109a7565b005b34801561022857600080fd5b50610243600480360381019061023e919061182a565b610a9e565b60405161025899989796959493929190611998565b60405180910390f35b34801561026d57600080fd5b506102886004803603810190610283919061179d565b610dc1565b60405161029591906117d9565b60405180910390f35b3480156102aa57600080fd5b506102c560048036038101906102c0919061182a565b610df4565b005b3480156102d357600080fd5b506102ee60048036038101906102e9919061182a565b610fa3565b005b3480156102fc57600080fd5b50610305611165565b6040516103129190611866565b60405180910390f35b34801561032757600080fd5b50610342600480360381019061033d919061179d565b61116b565b005b34801561035057600080fd5b5061036b6004803603810190610366919061179d565b6112b4565b6040516103789190611866565b60405180910390f35b34801561038d57600080fd5b506103a860048036038101906103a3919061182a565b6112cc565b6040516103bb9796959493929190611a3a565b60405180910390f35b6103cc6114d3565b005b3480156103da57600080fd5b506103e36115fb565b6040516103f09190611866565b60405180910390f35b34801561040557600080fd5b5061040e611601565b60405161041b91906117d9565b60405180910390f35b34801561043057600080fd5b5061044b60048036038101906104469190611bf3565b611625565b005b60008073ffffffffffffffffffffffffffffffffffffffff16600460008473ffffffffffffffffffffffffffffffffffffffff1673ffffffffffffffffffffffffffffffffffffffff16815260200190815260200160002060009054906101000a900473ffffffffffffffffffffffffffffffffffffffff1673ffffffffffffffffffffffffffffffffffffffff16036104e75781610548565b600460008373ffffffffffffffffffffffffffffffffffffffff1673ffffffffffffffffffffffffffffffffffffffff16815260200190815260200160002060009054906101000a900473ffffffffffffffffffffffffffffffffffffffff165b9050919050565b60036020528060005260406000206000915090505481565b60015481565b6000600260008481526020019081526020016000209050600073ffffffffffffffffffffffffffffffffffffffff168160050160009054906101000a900473ffffffffffffffffffffffffffffffffffffffff1673ffffffffffffffffffffffffffffffffffffffff1603610617576040517f08c379a000000000000000000000000000000000000000000000000000000000815260040161060e90611ce6565b60405180910390fd5b8060050160149054906101000a900460ff1615610669576040517f08c379a000000000000000000000000000000000000000000000000000000000815260040161066090611d52565b60405180910390fd5b610e10600360008581526020019081526020016000205461068a9190611da1565b4211156106cc576040517f08c379a00000000000000000000000000000000000000000000000000000000081526004016106c390611e21565b60405180910390fd5b60006106d73361044d565b90508160060160008273ffffffffffffffffffffffffffffffffffffffff1673ffffffffffffffffffffffffffffffffffffffff16815260200190815260200160002060009054906101000a900460ff1615610768576040517f08c379a000000000000000000000000000000000000000000000000000000000815260040161075f90611e8d565b60405180910390fd5b600654600560008373ffffffffffffffffffffffffffffffffffffffff1673ffffffffffffffffffffffffffffffffffffffff1681526020019081526020016000205410156107ec576040517f08c379a00000000000000000000000000000000000000000000000000000000081526004016107e390611ef9565b60405180910390fd5b6000600560008373ffffffffffffffffffffffffffffffffffffffff1673ffffffffffffffffffffffffffffffffffffffff1681526020019081526020016000205490508315610856578083600301600082825461084a9190611da1565b92505081905550610872565b8083600401600082825461086a9190611da1565b925050819055505b60018360060160008473ffffffffffffffffffffffffffffffffffffffff1673ffffffffffffffffffffffffffffffffffffffff16815260200190815260200160002060006101000a81548160ff021916908315150217905550847f7c2de587c00d75474a0c6c6fa96fd3b45dc974cd4e8a75f712bb84c950dce1b583868460405161090093929190611f19565b60405180910390a25050505050565b60008054906101000a900473ffffffffffffffffffffffffffffffffffffffff1673ffffffffffffffffffffffffffffffffffffffff163373ffffffffffffffffffffffffffffffffffffffff161461099d576040517f08c379a000000000000000000000000000000000000000000000000000000000815260040161099490611f9c565b60405180910390fd5b8060068190555050565b60008054906101000a900473ffffffffffffffffffffffffffffffffffffffff1673ffffffffffffffffffffffffffffffffffffffff163373ffffffffffffffffffffffffffffffffffffffff1614610a35576040517f08c379a0000000000000000000000000000000000000000000000000000000008152600401610a2c90611f9c565b60405180910390fd5b60008054906101000a900473ffffffffffffffffffffffffffffffffffffffff1673ffffffffffffffffffffffffffffffffffffffff166108fc479081150290604051600060405180830381858888f19350505050158015610a9b573d6000803e3d6000fd5b50565b60608060606000806000806000806000600260008c815260200190815260200160002090506000610ace3361044d565b9050610e10600360008e815260200190815260200160002054610af19190611da1565b4211158015610b0f57508160050160149054906101000a900460ff16155b9250816000018260010183600201846003015485600401548660050160009054906101000a900473ffffffffffffffffffffffffffffffffffffffff168760050160149054906101000a900460ff168860060160008973ffffffffffffffffffffffffffffffffffffffff1673ffffffffffffffffffffffffffffffffffffffff16815260200190815260200160002060009054906101000a900460ff16158015610bfb5750600654600560008a73ffffffffffffffffffffffffffffffffffffffff1673ffffffffffffffffffffffffffffffffffffffff1681526020019081526020016000205410155b8a888054610c0890611feb565b80601f0160208091040260200160405190810160405280929190818152602001828054610c3490611feb565b8015610c815780601f10610c5657610100808354040283529160200191610c81565b820191906000526020600020905b815481529060010190602001808311610c6457829003601f168201915b50505050509850878054610c9490611feb565b80601f0160208091040260200160405190810160405280929190818152602001828054610cc090611feb565b8015610d0d5780601f10610ce257610100808354040283529160200191610d0d565b820191906000526020600020905b815481529060010190602001808311610cf057829003601f168201915b50505050509750868054610d2090611feb565b80601f0160208091040260200160405190810160405280929190818152602001828054610d4c90611feb565b8015610d995780601f10610d6e57610100808354040283529160200191610d99565b820191906000526020600020905b815481529060010190602001808311610d7c57829003601f168201915b505050505096509a509a509a509a509a509a509a509a509a5050509193959799909294969850565b60046020528060005260406000206000915054906101000a900473ffffffffffffffffffffffffffffffffffffffff1681565b80600560003373ffffffffffffffffffffffffffffffffffffffff1673ffffffffffffffffffffffffffffffffffffffff168152602001908152602001600020541015610e76576040517f08c379a0000000000000000000000000000000000000000000000000000000008152600401610e6d90611ef9565b60405180910390fd5b80600560003373ffffffffffffffffffffffffffffffffffffffff1673ffffffffffffffffffffffffffffffffffffffff1681526020019081526020016000206000828254610ec5919061201c565b925050819055503373ffffffffffffffffffffffffffffffffffffffff166108fc829081150290604051600060405180830381858888f19350505050158015610f12573d6000803e3d6000fd5b503373ffffffffffffffffffffffffffffffffffffffff167f39df0e5286a3ef2f42a0bf52f32cfe2c58e5b0405f47fe512f2c2439e4cfe204600560003373ffffffffffffffffffffffffffffffffffffffff1673ffffffffffffffffffffffffffffffffffffffff16815260200190815260200160002054604051610f989190611866565b60405180910390a250565b60008054906101000a900473ffffffffffffffffffffffffffffffffffffffff1673ffffffffffffffffffffffffffffffffffffffff163373ffffffffffffffffffffffffffffffffffffffff1614611031576040517f08c379a000000000000000000000000000000000000000000000000000000000815260040161102890611f9c565b60405180910390fd5b60006002600083815260200190815260200160002090508060050160149054906101000a900460ff161561109a576040517f08c379a00000000000000000000000000000000000000000000000000000000081526004016110919061209c565b60405180910390fd5b610e1060036000848152602001908152602001600020546110bb9190611da1565b42116110fc576040517f08c379a00000000000000000000000000000000000000000000000000000000081526004016110f390612108565b60405180910390fd5b60018160050160146101000a81548160ff021916908315150217905550600081600401548260030154119050827fc376607d08aab8e39afddbd149fcbefac7c69dcb371a8795626693e5a5a5d10a826040516111589190612128565b60405180910390a2505050565b610e1081565b3373ffffffffffffffffffffffffffffffffffffffff168173ffffffffffffffffffffffffffffffffffffffff16036111d9576040517f08c379a00000000000000000000000000000000000000000000000000000000081526004016111d09061218f565b60405180910390fd5b80600460003373ffffffffffffffffffffffffffffffffffffffff1673ffffffffffffffffffffffffffffffffffffffff16815260200190815260200160002060006101000a81548173ffffffffffffffffffffffffffffffffffffffff021916908373ffffffffffffffffffffffffffffffffffffffff1602179055508073ffffffffffffffffffffffffffffffffffffffff163373ffffffffffffffffffffffffffffffffffffffff167fa0ff2fa6909fe4ddd94349fc9d8e2932f3dfe666216f3cc2aa3a72f5a03b655e60405160405180910390a350565b60056020528060005260406000206000915090505481565b60026020528060005260406000206000915090508060000180546112ef90611feb565b80601f016020809104026020016040519081016040528092919081815260200182805461131b90611feb565b80156113685780601f1061133d57610100808354040283529160200191611368565b820191906000526020600020905b81548152906001019060200180831161134b57829003601f168201915b50505050509080600101805461137d90611feb565b80601f01602080910402602001604051908101604052809291908181526020018280546113a990611feb565b80156113f65780601f106113cb576101008083540402835291602001916113f6565b820191906000526020600020905b8154815290600101906020018083116113d957829003601f168201915b50505050509080600201805461140b90611feb565b80601f016020809104026020016040519081016040528092919081815260200182805461143790611feb565b80156114845780601f1061145957610100808354040283529160200191611484565b820191906000526020600020905b81548152906001019060200180831161146757829003601f168201915b5050505050908060030154908060040154908060050160009054906101000a900473ffffffffffffffffffffffffffffffffffffffff16908060050160149054906101000a900460ff16905087565b60003411611516576040517f08c379a000000000000000000000000000000000000000000000000000000000815260040161150d906121fb565b60405180910390fd5b34600560003373ffffffffffffffffffffffffffffffffffffffff1673ffffffffffffffffffffffffffffffffffffffff16815260200190815260200160002060008282546115659190611da1565b925050819055503373ffffffffffffffffffffffffffffffffffffffff167f39df0e5286a3ef2f42a0bf52f32cfe2c58e5b0405f47fe512f2c2439e4cfe204600560003373ffffffffffffffffffffffffffffffffffffffff1673ffffffffffffffffffffffffffffffffffffffff168152602001908152602001600020546040516115f19190611866565b60405180910390a2565b60065481565b60008054906101000a900473ffffffffffffffffffffffffffffffffffffffff1681565b600060026000600154815260200190815260200160002090508381600001908161164f91906123c7565b508281600101908161166191906123c7565b508181600201908161167391906123c7565b50338160050160006101000a81548173ffffffffffffffffffffffffffffffffffffffff021916908373ffffffffffffffffffffffffffffffffffffffff16021790555042600360006001548152602001908152602001600020819055506001547ff41ea29a335564573dd96630877e28e7529614e42115e1667bb721cb1a8bd0b08533604051611705929190612499565b60405180910390a260016000815480929190611720906124c9565b919050555050505050565b6000604051905090565b600080fd5b600080fd5b600073ffffffffffffffffffffffffffffffffffffffff82169050919050565b600061176a8261173f565b9050919050565b61177a8161175f565b811461178557600080fd5b50565b60008135905061179781611771565b92915050565b6000602082840312156117b3576117b2611735565b5b60006117c184828501611788565b91505092915050565b6117d38161175f565b82525050565b60006020820190506117ee60008301846117ca565b92915050565b6000819050919050565b611807816117f4565b811461181257600080fd5b50565b600081359050611824816117fe565b92915050565b6000602082840312156118405761183f611735565b5b600061184e84828501611815565b91505092915050565b611860816117f4565b82525050565b600060208201905061187b6000830184611857565b92915050565b60008115159050919050565b61189681611881565b81146118a157600080fd5b50565b6000813590506118b38161188d565b92915050565b600080604083850312156118d0576118cf611735565b5b60006118de85828601611815565b92505060206118ef858286016118a4565b9150509250929050565b600081519050919050565b600082825260208201905092915050565b60005b83811015611933578082015181840152602081019050611918565b60008484015250505050565b6000601f19601f8301169050919050565b600061195b826118f9565b6119658185611904565b9350611975818560208601611915565b61197e8161193f565b840191505092915050565b61199281611881565b82525050565b60006101208201905081810360008301526119b3818c611950565b905081810360208301526119c7818b611950565b905081810360408301526119db818a611950565b90506119ea6060830189611857565b6119f76080830188611857565b611a0460a08301876117ca565b611a1160c0830186611989565b611a1e60e0830185611989565b611a2c610100830184611989565b9a9950505050505050505050565b600060e0820190508181036000830152611a54818a611950565b90508181036020830152611a688189611950565b90508181036040830152611a7c8188611950565b9050611a8b6060830187611857565b611a986080830186611857565b611aa560a08301856117ca565b611ab260c0830184611989565b98975050505050505050565b600080fd5b600080fd5b7f4e487b7100000000000000000000000000000000000000000000000000000000600052604160045260246000fd5b611b008261193f565b810181811067ffffffffffffffff82111715611b1f57611b1e611ac8565b5b80604052505050565b6000611b3261172b565b9050611b3e8282611af7565b919050565b600067ffffffffffffffff821115611b5e57611b5d611ac8565b5b611b678261193f565b9050602081019050919050565b82818337600083830152505050565b6000611b96611b9184611b43565b611b28565b905082815260208101848484011115611bb257611bb1611ac3565b5b611bbd848285611b74565b509392505050565b600082601f830112611bda57611bd9611abe565b5b8135611bea848260208601611b83565b91505092915050565b600080600060608486031215611c0c57611c0b611735565b5b600084013567ffffffffffffffff811115611c2a57611c2961173a565b5b611c3686828701611bc5565b935050602084013567ffffffffffffffff811115611c5757611c5661173a565b5b611c6386828701611bc5565b925050604084013567ffffffffffffffff811115611c8457611c8361173a565b5b611c9086828701611bc5565b9150509250925092565b7f5265706f727420646f65736e2774206578697374000000000000000000000000600082015250565b6000611cd0601483611904565b9150611cdb82611c9a565b602082019050919050565b60006020820190508181036000830152611cff81611cc3565b9050919050565b7f566f74696e6720636c6f73656400000000000000000000000000000000000000600082015250565b6000611d3c600d83611904565b9150611d4782611d06565b602082019050919050565b60006020820190508181036000830152611d6b81611d2f565b9050919050565b7f4e487b7100000000000000000000000000000000000000000000000000000000600052601160045260246000fd5b6000611dac826117f4565b9150611db7836117f4565b9250828201905080821115611dcf57611dce611d72565b5b92915050565b7f566f74696e6720706572696f6420656e64656400000000000000000000000000600082015250565b6000611e0b601383611904565b9150611e1682611dd5565b602082019050919050565b60006020820190508181036000830152611e3a81611dfe565b9050919050565b7f416c726561647920766f74656400000000000000000000000000000000000000600082015250565b6000611e77600d83611904565b9150611e8282611e41565b602082019050919050565b60006020820190508181036000830152611ea681611e6a565b9050919050565b7f496e73756666696369656e74207374616b650000000000000000000000000000600082015250565b6000611ee3601283611904565b9150611eee82611ead565b602082019050919050565b60006020820190508181036000830152611f1281611ed6565b9050919050565b6000606082019050611f2e60008301866117ca565b611f3b6020830185611989565b611f486040830184611857565b949350505050565b7f4f6e6c792061646d696e00000000000000000000000000000000000000000000600082015250565b6000611f86600a83611904565b9150611f9182611f50565b602082019050919050565b60006020820190508181036000830152611fb581611f79565b9050919050565b7f4e487b7100000000000000000000000000000000000000000000000000000000600052602260045260246000fd5b6000600282049050600182168061200357607f821691505b60208210810361201657612015611fbc565b5b50919050565b6000612027826117f4565b9150612032836117f4565b925082820390508181111561204a57612049611d72565b5b92915050565b7f416c7265616479207265736f6c76656400000000000000000000000000000000600082015250565b6000612086601083611904565b915061209182612050565b602082019050919050565b600060208201905081810360008301526120b581612079565b9050919050565b7f566f74696e67207374696c6c206f70656e000000000000000000000000000000600082015250565b60006120f2601183611904565b91506120fd826120bc565b602082019050919050565b60006020820190508181036000830152612121816120e5565b9050919050565b600060208201905061213d6000830184611989565b92915050565b7f43616e6e6f742064656c656761746520746f2073656c66000000000000000000600082015250565b6000612179601783611904565b915061218482612143565b602082019050919050565b600060208201905081810360008301526121a88161216c565b9050919050565b7f4d7573742073656e642045544800000000000000000000000000000000000000600082015250565b60006121e5600d83611904565b91506121f0826121af565b602082019050919050565b60006020820190508181036000830152612214816121d8565b9050919050565b60008190508160005260206000209050919050565b60006020601f8301049050919050565b600082821b905092915050565b60006008830261227d7fffffffffffffffffffffffffffffffffffffffffffffffffffffffffffffffff82612240565b6122878683612240565b95508019841693508086168417925050509392505050565b6000819050919050565b60006122c46122bf6122ba846117f4565b61229f565b6117f4565b9050919050565b6000819050919050565b6122de836122a9565b6122f26122ea826122cb565b84845461224d565b825550505050565b600090565b6123076122fa565b6123128184846122d5565b505050565b5b818110156123365761232b6000826122ff565b600181019050612318565b5050565b601f82111561237b5761234c8161221b565b61235584612230565b81016020851015612364578190505b61237861237085612230565b830182612317565b50505b505050565b600082821c905092915050565b600061239e60001984600802612380565b1980831691505092915050565b60006123b7838361238d565b9150826002028217905092915050565b6123d0826118f9565b67ffffffffffffffff8111156123e9576123e8611ac8565b5b6123f38254611feb565b6123fe82828561233a565b600060209050601f831160018114612431576000841561241f578287015190505b61242985826123ab565b865550612491565b601f19841661243f8661221b565b60005b8281101561246757848901518255600182019150602085019450602081019050612442565b868310156124845784890151612480601f89168261238d565b8355505b6001600288020188555050505b505050505050565b600060408201905081810360008301526124b38185611950565b90506124c260208301846117ca565b9392505050565b60006124d4826117f4565b91507fffffffffffffffffffffffffffffffffffffffffffffffffffffffffffffffff820361250657612505611d72565b5b60018201905091905056fea2646970667358221220677778523f0756a2496b6d5ae1fa13be500693a494d17ba7ca712b2a7c74543364736f6c63430008130033","opcodes":"PUSH1 0x80 PUSH1 0x40 MSTORE PUSH8 0x16345785D8A0000 PUSH1 0x6 SSTORE CALLVALUE DUP1 ISZERO PUSH2 0x1C JUMPI PUSH1 0x0 DUP1 REVERT JUMPDEST POP CALLER PUSH1 0x0 DUP1 PUSH2 0x100 EXP DUP2 SLOAD DUP2 PUSH20 0xFFFFFFFFFFFFFFFFFFFFFFFFFFFFFFFFFFFFFFFF MUL NOT AND SWAP1 DUP4 PUSH20 0xFFFFFFFFFFFFFFFFFFFFFFFFFFFFFFFFFFFFFFFF AND MUL OR SWAP1 SSTORE POP PUSH2 0x2547 DUP1 PUSH2 0x6C PUSH1 0x0 CODECOPY PUSH1 0x0 RETURN INVALID PUSH1 0x80 PUSH1 0x40 MSTORE PUSH1 0x4 CALLDATASIZE LT PUSH2 0x109 JUMPI PUSH1 0x0 CALLDATALOAD PUSH1 0xE0 SHR DUP1 PUSH4 0x6DFA5E61 GT PUSH2 0x95 JUMPI DUP1 PUSH4 0xC942ADF7 GT PUSH2 0x64 JUMPI DUP1 PUSH4 0xC942ADF7 EQ PUSH2 0x381 JUMPI DUP1 PUSH4 0xCE46643B EQ PUSH2 0x3C4 JUMPI DUP1 PUSH4 0xEC5FFAC2 EQ PUSH2 0x3CE JUMPI DUP1 PUSH4 0xF851A440 EQ PUSH2 0x3F9 JUMPI DUP1 PUSH4 0xFB45A7C2 EQ PUSH2 0x424 JUMPI PUSH2 0x109 JUMP JUMPDEST DUP1 PUSH4 0x6DFA5E61 EQ PUSH2 0x2C7 JUMPI DUP1 PUSH4 0xB1610D7E EQ PUSH2 0x2F0 JUMPI DUP1 PUSH4 0xB31E1D4D EQ PUSH2 0x31B JUMPI DUP1 PUSH4 0xC07473F6 EQ PUSH2 0x344 JUMPI PUSH2 0x109 JUMP JUMPDEST DUP1 PUSH4 0x233E9903 GT PUSH2 0xDC JUMPI DUP1 PUSH4 0x233E9903 EQ PUSH2 0x1DC JUMPI DUP1 PUSH4 0x476343EE EQ PUSH2 0x205 JUMPI DUP1 PUSH4 0x4E7F9B19 EQ PUSH2 0x21C JUMPI DUP1 PUSH4 0x587CDE1E EQ PUSH2 0x261 JUMPI DUP1 PUSH4 0x608E4DD0 EQ PUSH2 0x29E JUMPI PUSH2 0x109 JUMP JUMPDEST DUP1 PUSH4 0x8EE2D72 EQ PUSH2 0x10E JUMPI DUP1 PUSH4 0xBACD0C4 EQ PUSH2 0x14B JUMPI DUP1 PUSH4 0xCA70914 EQ PUSH2 0x188 JUMPI DUP1 PUSH4 0x115E647B EQ PUSH2 0x1B3 JUMPI JUMPDEST PUSH1 0x0 DUP1 REVERT JUMPDEST CALLVALUE DUP1 ISZERO PUSH2 0x11A JUMPI PUSH1 0x0 DUP1 REVERT JUMPDEST POP PUSH2 0x135 PUSH1 0x4 DUP1 CALLDATASIZE SUB DUP2 ADD SWAP1 PUSH2 0x130 SWAP2 SWAP1 PUSH2 0x179D JUMP JUMPDEST PUSH2 0x44D JUMP JUMPDEST PUSH1 0x40 MLOAD PUSH2 0x142 SWAP2 SWAP1 PUSH2 0x17D9 JUMP JUMPDEST PUSH1 0x40 MLOAD DUP1 SWAP2 SUB SWAP1 RETURN JUMPDEST CALLVALUE DUP1 ISZERO PUSH2 0x157 JUMPI PUSH1 0x0 DUP1 REVERT JUMPDEST POP PUSH2 0x172 PUSH1 0x4 DUP1 CALLDATASIZE SUB DUP2 ADD SWAP1 PUSH2 0x16D SWAP2 SWAP1 PUSH2 0x182A JUMP JUMPDEST PUSH2 0x54F JUMP JUMPDEST PUSH1 0x40 MLOAD PUSH2 0x17F SWAP2 SWAP1 PUSH2 0x1866 JUMP JUMPDEST PUSH1 0x40 MLOAD DUP1 SWAP2 SUB SWAP1 RETURN JUMPDEST CALLVALUE DUP1 ISZERO PUSH2 0x194 JUMPI PUSH1 0x0 DUP1 REVERT JUMPDEST POP PUSH2 0x19D PUSH2 0x567 JUMP JUMPDEST PUSH1 0x40 MLOAD PUSH2 0x1AA SWAP2 SWAP1 PUSH2 0x1866 JUMP JUMPDEST PUSH1 0x40 MLOAD DUP1 SWAP2 SUB SWAP1 RETURN JUMPDEST CALLVALUE DUP1 ISZERO PUSH2 0x1BF JUMPI PUSH1 0x0 DUP1 REVERT JUMPDEST POP PUSH2 0x1DA PUSH1 0x4 DUP1 CALLDATASIZE SUB DUP2 ADD SWAP1 PUSH2 0x1D5 SWAP2 SWAP1 PUSH2 0x18B9 JUMP JUMPDEST PUSH2 0x56D JUMP JUMPDEST STOP JUMPDEST CALLVALUE DUP1 ISZERO PUSH2 0x1E8 JUMPI PUSH1 0x0 DUP1 REVERT JUMPDEST POP PUSH2 0x203 PUSH1 0x4 DUP1 CALLDATASIZE SUB DUP2 ADD SWAP1 PUSH2 0x1FE SWAP2 SWAP1 PUSH2 0x182A JUMP JUMPDEST PUSH2 0x90F JUMP JUMPDEST STOP JUMPDEST CALLVALUE DUP1 ISZERO PUSH2 0x211 JUMPI PUSH1 0x0 DUP1 REVERT JUMPDEST POP PUSH2 0x21A PUSH2 0x9A7 JUMP JUMPDEST STOP JUMPDEST CALLVALUE DUP1 ISZERO PUSH2 0x228 JUMPI PUSH1 0x0 DUP1 REVERT JUMPDEST POP PUSH2 0x243 PUSH1 0x4 DUP1 CALLDATASIZE SUB DUP2 ADD SWAP1 PUSH2 0x23E SWAP2 SWAP1 PUSH2 0x182A JUMP JUMPDEST PUSH2 0xA9E JUMP JUMPDEST PUSH1 0x40 MLOAD PUSH2 0x258 SWAP10 SWAP9 SWAP8 SWAP7 SWAP6 SWAP5 SWAP4 SWAP3 SWAP2 SWAP1 PUSH2 0x1998 JUMP JUMPDEST PUSH1 0x40 MLOAD DUP1 SWAP2 SUB SWAP1 RETURN JUMPDEST CALLVALUE DUP1 ISZERO PUSH2 0x26D JUMPI PUSH1 0x0 DUP1 REVERT JUMPDEST POP PUSH2 0x288 PUSH1 0x4 DUP1 CALLDATASIZE SUB DUP2 ADD SWAP1 PUSH2 0x283 SWAP2 SWAP1 PUSH2 0x179D JUMP JUMPDEST PUSH2 0xDC1 JUMP JUMPDEST PUSH1 0x40 MLOAD PUSH2 0x295 SWAP2 SWAP1 PUSH2 0x17D9 JUMP JUMPDEST PUSH1 0x40 MLOAD DUP1 SWAP2 SUB SWAP1 RETURN JUMPDEST CALLVALUE DUP1 ISZERO PUSH2 0x2AA JUMPI PUSH1 0x0 DUP1 REVERT JUMPDEST POP PUSH2 0x2C5 PUSH1 0x4 DUP1 CALLDATASIZE SUB DUP2 ADD SWAP1 PUSH2 0x2C0 SWAP2 SWAP1 PUSH2 0x182A JUMP JUMPDEST PUSH2 0xDF4 JUMP JUMPDEST STOP JUMPDEST CALLVALUE DUP1 ISZERO PUSH2 0x2D3 JUMPI PUSH1 0x0 DUP1 REVERT JUMPDEST POP PUSH2 0x2EE PUSH1 0x4 DUP1 CALLDATASIZE SUB DUP2 ADD SWAP1 PUSH2 0x2E9 SWAP2 SWAP1 PUSH2 0x182A JUMP JUMPDEST PUSH2 0xFA3 JUMP JUMPDEST STOP JUMPDEST CALLVALUE DUP1 ISZERO PUSH2 0x2FC JUMPI PUSH1 0x0 DUP1 REVERT JUMPDEST POP PUSH2 0x305 PUSH2 0x1165 JUMP JUMPDEST PUSH1 0x40 MLOAD PUSH2 0x312 SWAP2 SWAP1 PUSH2 0x1866 JUMP JUMPDEST PUSH1 0x40 MLOAD DUP1 SWAP2 SUB SWAP1 RETURN JUMPDEST CALLVALUE DUP1 ISZERO PUSH2 0x327 JUMPI PUSH1 0x0 DUP1 REVERT JUMPDEST POP PUSH2 0x342 PUSH1 0x4 DUP1 CALLDATASIZE SUB DUP2 ADD SWAP1 PUSH2 0x33D SWAP2 SWAP1 PUSH2 0x179D JUMP JUMPDEST PUSH2 0x116B JUMP JUMPDEST STOP JUMPDEST CALLVALUE DUP1 ISZERO PUSH2 0x350 JUMPI PUSH1 0x0 DUP1 REVERT JUMPDEST POP PUSH2 0x36B PUSH1 0x4 DUP1 CALLDATASIZE SUB DUP2 ADD SWAP1 PUSH2 0x366 SWAP2 SWAP1 PUSH2 0x179D JUMP JUMPDEST PUSH2 0x12B4 JUMP JUMPDEST PUSH1 0x40 MLOAD PUSH2 0x378 SWAP2 SWAP1 PUSH2 0x1866 JUMP JUMPDEST PUSH1 0x40 MLOAD DUP1 SWAP2 SUB SWAP1 RETURN JUMPDEST CALLVALUE DUP1 ISZERO PUSH2 0x38D JUMPI PUSH1 0x0 DUP1 REVERT JUMPDEST POP PUSH2 0x3A8 PUSH1 0x4 DUP1 CALLDATASIZE SUB DUP2 ADD SWAP1 PUSH2 0x3A3 SWAP2 SWAP1 PUSH2 0x182A JUMP JUMPDEST PUSH2 0x12CC JUMP JUMPDEST PUSH1 0x40 MLOAD PUSH2 0x3BB SWAP8 SWAP7 SWAP6 SWAP5 SWAP4 SWAP3 SWAP2 SWAP1 PUSH2 0x1A3A JUMP JUMPDEST PUSH1 0x40 MLOAD DUP1 SWAP2 SUB SWAP1 RETURN JUMPDEST PUSH2 0x3CC PUSH2 0x14D3 JUMP JUMPDEST STOP JUMPDEST CALLVALUE DUP1 ISZERO PUSH2 0x3DA JUMPI PUSH1 0x0 DUP1 REVERT JUMPDEST POP PUSH2 0x3E3 PUSH2 0x15FB JUMP JUMPDEST PUSH1 0x40 MLOAD PUSH2 0x3F0 SWAP2 SWAP1 PUSH2 0x1866 JUMP JUMPDEST PUSH1 0x40 MLOAD DUP1 SWAP2 SUB SWAP1 RETURN JUMPDEST CALLVALUE DUP1 ISZERO PUSH2 0x405 JUMPI PUSH1 0x0 DUP1 REVERT JUMPDEST POP PUSH2 0x40E PUSH2 0x1601 JUMP JUMPDEST PUSH1 0x40 MLOAD PUSH2 0x41B SWAP2 SWAP1 PUSH2 0x17D9 JUMP JUMPDEST PUSH1 0x40 MLOAD DUP1 SWAP2 SUB SWAP1 RETURN JUMPDEST CALLVALUE DUP1 ISZERO PUSH2 0x430 JUMPI PUSH1 0x0 DUP1 REVERT JUMPDEST POP PUSH2 0x44B PUSH1 0x4 DUP1 CALLDATASIZE SUB DUP2 ADD SWAP1 PUSH2 0x446 SWAP2 SWAP1 PUSH2 0x1BF3 JUMP JUMPDEST PUSH2 0x1625 JUMP JUMPDEST STOP JUMPDEST PUSH1 0x0 DUP1 PUSH20 0xFFFFFFFFFFFFFFFFFFFFFFFFFFFFFFFFFFFFFFFF AND PUSH1 0x4 PUSH1 0x0 DUP5 PUSH20 0xFFFFFFFFFFFFFFFFFFFFFFFFFFFFFFFFFFFFFFFF AND PUSH20 0xFFFFFFFFFFFFFFFFFFFFFFFFFFFFFFFFFFFFFFFF AND DUP2 MSTORE PUSH1 0x20 ADD SWAP1 DUP2 MSTORE PUSH1 0x20 ADD PUSH1 0x0 KECCAK256 PUSH1 0x0 SWAP1 SLOAD SWAP1 PUSH2 0x100 EXP SWAP1 DIV PUSH20 0xFFFFFFFFFFFFFFFFFFFFFFFFFFFFFFFFFFFFFFFF AND PUSH20 0xFFFFFFFFFFFFFFFFFFFFFFFFFFFFFFFFFFFFFFFF AND SUB PUSH2 0x4E7 JUMPI DUP2 PUSH2 0x548 JUMP JUMPDEST PUSH1 0x4 PUSH1 0x0 DUP4 PUSH20 0xFFFFFFFFFFFFFFFFFFFFFFFFFFFFFFFFFFFFFFFF AND PUSH20 0xFFFFFFFFFFFFFFFFFFFFFFFFFFFFFFFFFFFFFFFF AND DUP2 MSTORE PUSH1 0x20 ADD SWAP1 DUP2 MSTORE PUSH1 0x20 ADD PUSH1 0x0 KECCAK256 PUSH1 0x0 SWAP1 SLOAD SWAP1 PUSH2 0x100 EXP SWAP1 DIV PUSH20 0xFFFFFFFFFFFFFFFFFFFFFFFFFFFFFFFFFFFFFFFF AND JUMPDEST SWAP1 POP SWAP2 SWAP1 POP JUMP JUMPDEST PUSH1 0x3 PUSH1 0x20 MSTORE DUP1 PUSH1 0x0 MSTORE PUSH1 0x40 PUSH1 0x0 KECCAK256 PUSH1 0x0 SWAP2 POP SWAP1 POP SLOAD DUP2 JUMP JUMPDEST PUSH1 0x1 SLOAD DUP2 JUMP JUMPDEST PUSH1 0x0 PUSH1 0x2 PUSH1 0x0 DUP5 DUP2 MSTORE PUSH1 0x20 ADD SWAP1 DUP2 MSTORE PUSH1 0x20 ADD PUSH1 0x0 KECCAK256 SWAP1 POP PUSH1 0x0 PUSH20 0xFFFFFFFFFFFFFFFFFFFFFFFFFFFFFFFFFFFFFFFF AND DUP2 PUSH1 0x5 ADD PUSH1 0x0 SWAP1 SLOAD SWAP1 PUSH2 0x100 EXP SWAP1 DIV PUSH20 0xFFFFFFFFFFFFFFFFFFFFFFFFFFFFFFFFFFFFFFFF AND PUSH20 0xFFFFFFFFFFFFFFFFFFFFFFFFFFFFFFFFFFFFFFFF AND SUB PUSH2 0x617 JUMPI PUSH1 0x40 MLOAD PUSH32 0x8C379A000000000000000000000000000000000000000000000000000000000 DUP2 MSTORE PUSH1 0x4 ADD PUSH2 0x60E SWAP1 PUSH2 0x1CE6 JUMP JUMPDEST PUSH1 0x40 MLOAD DUP1 SWAP2 SUB SWAP1 REVERT JUMPDEST DUP1 PUSH1 0x5 ADD PUSH1 0x14 SWAP1 SLOAD SWAP1 PUSH2 0x100 EXP SWAP1 DIV PUSH1 0xFF AND ISZERO PUSH2 0x669 JUMPI PUSH1 0x40 MLOAD PUSH32 0x8C379A000000000000000000000000000000000000000000000000000000000 DUP2 MSTORE PUSH1 0x4 ADD PUSH2 0x660 SWAP1 PUSH2 0x1D52 JUMP JUMPDEST PUSH1 0x40 MLOAD DUP1 SWAP2 SUB SWAP1 REVERT JUMPDEST PUSH2 0xE10 PUSH1 0x3 PUSH1 0x0 DUP6 DUP2 MSTORE PUSH1 0x20 ADD SWAP1 DUP2 MSTORE PUSH1 0x20 ADD PUSH1 0x0 KECCAK256 SLOAD PUSH2 0x68A SWAP2 SWAP1 PUSH2 0x1DA1 JUMP JUMPDEST TIMESTAMP GT ISZERO PUSH2 0x6CC JUMPI PUSH1 0x40 MLOAD PUSH32 0x8C379A000000000000000000000000000000000000000000000000000000000 DUP2 MSTORE PUSH1 0x4 ADD PUSH2 0x6C3 SWAP1 PUSH2 0x1E21 JUMP JUMPDEST PUSH1 0x40 MLOAD DUP1 SWAP2 SUB SWAP1 REVERT JUMPDEST PUSH1 0x0 PUSH2 0x6D7 CALLER PUSH2 0x44D JUMP JUMPDEST SWAP1 POP DUP2 PUSH1 0x6 ADD PUSH1 0x0 DUP3 PUSH20 0xFFFFFFFFFFFFFFFFFFFFFFFFFFFFFFFFFFFFFFFF AND PUSH20 0xFFFFFFFFFFFFFFFFFFFFFFFFFFFFFFFFFFFFFFFF AND DUP2 MSTORE PUSH1 0x20 ADD SWAP1 DUP2 MSTORE PUSH1 0x20 ADD PUSH1 0x0 KECCAK256 PUSH1 0x0 SWAP1 SLOAD SWAP1 PUSH2 0x100 EXP SWAP1 DIV PUSH1 0xFF AND ISZERO PUSH2 0x768 JUMPI PUSH1 0x40 MLOAD PUSH32 0x8C379A000000000000000000000000000000000000000000000000000000000 DUP2 MSTORE PUSH1 0x4 ADD PUSH2 0x75F SWAP1 PUSH2 0x1E8D JUMP JUMPDEST PUSH1 0x40 MLOAD DUP1 SWAP2 SUB SWAP1 REVERT JUMPDEST PUSH1 0x6 SLOAD PUSH1 0x5 PUSH1 0x0 DUP4 PUSH20 0xFFFFFFFFFFFFFFFFFFFFFFFFFFFFFFFFFFFFFFFF AND PUSH20 0xFFFFFFFFFFFFFFFFFFFFFFFFFFFFFFFFFFFFFFFF AND DUP2 MSTORE PUSH1 0x20 ADD SWAP1 DUP2 MSTORE PUSH1 0x20 ADD PUSH1 0x0 KECCAK256 SLOAD LT ISZERO PUSH2 0x7EC JUMPI PUSH1 0x40 MLOAD PUSH32 0x8C379A000000000000000000000000000000000000000000000000000000000 DUP2 MSTORE PUSH1 0x4 ADD PUSH2 0x7E3 SWAP1 PUSH2 0x1EF9 JUMP JUMPDEST PUSH1 0x40 MLOAD DUP1 SWAP2 SUB SWAP1 REVERT JUMPDEST PUSH1 0x0 PUSH1 0x5 PUSH1 0x0 DUP4 PUSH20 0xFFFFFFFFFFFFFFFFFFFFFFFFFFFFFFFFFFFFFFFF AND PUSH20 0xFFFFFFFFFFFFFFFFFFFFFFFFFFFFFFFFFFFFFFFF AND DUP2 MSTORE PUSH1 0x20 ADD SWAP1 DUP2 MSTORE PUSH1 0x20 ADD PUSH1 0x0 KECCAK256 SLOAD SWAP1 POP DUP4 ISZERO PUSH2 0x856 JUMPI DUP1 DUP4 PUSH1 0x3 ADD PUSH1 0x0 DUP3 DUP3 SLOAD PUSH2 0x84A SWAP2 SWAP1 PUSH2 0x1DA1 JUMP JUMPDEST SWAP3 POP POP DUP2 SWAP1 SSTORE POP PUSH2 0x872 JUMP JUMPDEST DUP1 DUP4 PUSH1 0x4 ADD PUSH1 0x0 DUP3 DUP3 SLOAD PUSH2 0x86A SWAP2 SWAP1 PUSH2 0x1DA1 JUMP JUMPDEST SWAP3 POP POP DUP2 SWAP1 SSTORE POP JUMPDEST PUSH1 0x1 DUP4 PUSH1 0x6 ADD PUSH1 0x0 DUP5 PUSH20 0xFFFFFFFFFFFFFFFFFFFFFFFFFFFFFFFFFFFFFFFF AND PUSH20 0xFFFFFFFFFFFFFFFFFFFFFFFFFFFFFFFFFFFFFFFF AND DUP2 MSTORE PUSH1 0x20 ADD SWAP1 DUP2 MSTORE PUSH1 0x20 ADD PUSH1 0x0 KECCAK256 PUSH1 0x0 PUSH2 0x100 EXP DUP2 SLOAD DUP2 PUSH1 0xFF MUL NOT AND SWAP1 DUP4 ISZERO ISZERO MUL OR SWAP1 SSTORE POP DUP5 PUSH32 0x7C2DE587C00D75474A0C6C6FA96FD3B45DC974CD4E8A75F712BB84C950DCE1B5 DUP4 DUP7 DUP5 PUSH1 0x40 MLOAD PUSH2 0x900 SWAP4 SWAP3 SWAP2 SWAP1 PUSH2 0x1F19 JUMP JUMPDEST PUSH1 0x40 MLOAD DUP1 SWAP2 SUB SWAP1 LOG2 POP POP POP POP POP JUMP JUMPDEST PUSH1 0x0 DUP1 SLOAD SWAP1 PUSH2 0x100 EXP SWAP1 DIV PUSH20 0xFFFFFFFFFFFFFFFFFFFFFFFFFFFFFFFFFFFFFFFF AND PUSH20 0xFFFFFFFFFFFFFFFFFFFFFFFFFFFFFFFFFFFFFFFF AND CALLER PUSH20 0xFFFFFFFFFFFFFFFFFFFFFFFFFFFFFFFFFFFFFFFF AND EQ PUSH2 0x99D JUMPI PUSH1 0x40 MLOAD PUSH32 0x8C379A000000000000000000000000000000000000000000000000000000000 DUP2 MSTORE PUSH1 0x4 ADD PUSH2 0x994 SWAP1 PUSH2 0x1F9C JUMP JUMPDEST PUSH1 0x40 MLOAD DUP1 SWAP2 SUB SWAP1 REVERT JUMPDEST DUP1 PUSH1 0x6 DUP2 SWAP1 SSTORE POP POP JUMP JUMPDEST PUSH1 0x0 DUP1 SLOAD SWAP1 PUSH2 0x100 EXP SWAP1 DIV PUSH20 0xFFFFFFFFFFFFFFFFFFFFFFFFFFFFFFFFFFFFFFFF AND PUSH20 0xFFFFFFFFFFFFFFFFFFFFFFFFFFFFFFFFFFFFFFFF AND CALLER PUSH20 0xFFFFFFFFFFFFFFFFFFFFFFFFFFFFFFFFFFFFFFFF AND EQ PUSH2 0xA35 JUMPI PUSH1 0x40 MLOAD PUSH32 0x8C379A000000000000000000000000000000000000000000000000000000000 DUP2 MSTORE PUSH1 0x4 ADD PUSH2 0xA2C SWAP1 PUSH2 0x1F9C JUMP JUMPDEST PUSH1 0x40 MLOAD DUP1 SWAP2 SUB SWAP1 REVERT JUMPDEST PUSH1 0x0 DUP1 SLOAD SWAP1 PUSH2 0x100 EXP SWAP1 DIV PUSH20 0xFFFFFFFFFFFFFFFFFFFFFFFFFFFFFFFFFFFFFFFF AND PUSH20 0xFFFFFFFFFFFFFFFFFFFFFFFFFFFFFFFFFFFFFFFF AND PUSH2 0x8FC SELFBALANCE SWAP1 DUP2 ISZERO MUL SWAP1 PUSH1 0x40 MLOAD PUSH1 0x0 PUSH1 0x40 MLOAD DUP1 DUP4 SUB DUP2 DUP6 DUP9 DUP9 CALL SWAP4 POP POP POP POP ISZERO DUP1 ISZERO PUSH2 0xA9B JUMPI RETURNDATASIZE PUSH1 0x0 DUP1 RETURNDATACOPY RETURNDATASIZE PUSH1 0x0 REVERT JUMPDEST POP JUMP JUMPDEST PUSH1 0x60 DUP1 PUSH1 0x60 PUSH1 0x0 DUP1 PUSH1 0x0 DUP1 PUSH1 0x0 DUP1 PUSH1 0x0 PUSH1 0x2 PUSH1 0x0 DUP13 DUP2 MSTORE PUSH1 0x20 ADD SWAP1 DUP2 MSTORE PUSH1 0x20 ADD PUSH1 0x0 KECCAK256 SWAP1 POP PUSH1 0x0 PUSH2 0xACE CALLER PUSH2 0x44D JUMP JUMPDEST SWAP1 POP PUSH2 0xE10 PUSH1 0x3 PUSH1 0x0 DUP15 DUP2 MSTORE PUSH1 0x20 ADD SWAP1 DUP2 MSTORE PUSH1 0x20 ADD PUSH1 0x0 KECCAK256 SLOAD PUSH2 0xAF1 SWAP2 SWAP1 PUSH2 0x1DA1 JUMP JUMPDEST TIMESTAMP GT ISZERO DUP1 ISZERO PUSH2 0xB0F JUMPI POP DUP2 PUSH1 0x5 ADD PUSH1 0x14 SWAP1 SLOAD SWAP1 PUSH2 0x100 EXP SWAP1 DIV PUSH1 0xFF AND ISZERO JUMPDEST SWAP3 POP DUP2 PUSH1 0x0 ADD DUP3 PUSH1 0x1 ADD DUP4 PUSH1 0x2 ADD DUP5 PUSH1 0x3 ADD SLOAD DUP6 PUSH1 0x4 ADD SLOAD DUP7 PUSH1 0x5 ADD PUSH1 0x0 SWAP1 SLOAD SWAP1 PUSH2 0x100 EXP SWAP1 DIV PUSH20 0xFFFFFFFFFFFFFFFFFFFFFFFFFFFFFFFFFFFFFFFF AND DUP8 PUSH1 0x5 ADD PUSH1 0x14 SWAP1 SLOAD SWAP1 PUSH2 0x100 EXP SWAP1 DIV PUSH1 0xFF AND DUP9 PUSH1 0x6 ADD PUSH1 0x0 DUP10 PUSH20 0xFFFFFFFFFFFFFFFFFFFFFFFFFFFFFFFFFFFFFFFF AND PUSH20 0xFFFFFFFFFFFFFFFFFFFFFFFFFFFFFFFFFFFFFFFF AND DUP2 MSTORE PUSH1 0x20 ADD SWAP1 DUP2 MSTORE PUSH1 0x20 ADD PUSH1 0x0 KECCAK256 PUSH1 0x0 SWAP1 SLOAD SWAP1 PUSH2 0x100 EXP SWAP1 DIV PUSH1 0xFF AND ISZERO DUP1 ISZERO PUSH2 0xBFB JUMPI POP PUSH1 0x6 SLOAD PUSH1 0x5 PUSH1 0x0 DUP11 PUSH20 0xFFFFFFFFFFFFFFFFFFFFFFFFFFFFFFFFFFFFFFFF AND PUSH20 0xFFFFFFFFFFFFFFFFFFFFFFFFFFFFFFFFFFFFFFFF AND DUP2 MSTORE PUSH1 0x20 ADD SWAP1 DUP2 MSTORE PUSH1 0x20 ADD PUSH1 0x0 KECCAK256 SLOAD LT ISZERO JUMPDEST DUP11 DUP9 DUP1 SLOAD PUSH2 0xC08 SWAP1 PUSH2 0x1FEB JUMP JUMPDEST DUP1 PUSH1 0x1F ADD PUSH1 0x20 DUP1 SWAP2 DIV MUL PUSH1 0x20 ADD PUSH1 0x40 MLOAD SWAP1 DUP2 ADD PUSH1 0x40 MSTORE DUP1 SWAP3 SWAP2 SWAP1 DUP2 DUP2 MSTORE PUSH1 0x20 ADD DUP3 DUP1 SLOAD PUSH2 0xC34 SWAP1 PUSH2 0x1FEB JUMP JUMPDEST DUP1 ISZERO PUSH2 0xC81 JUMPI DUP1 PUSH1 0x1F LT PUSH2 0xC56 JUMPI PUSH2 0x100 DUP1 DUP4 SLOAD DIV MUL DUP4 MSTORE SWAP2 PUSH1 0x20 ADD SWAP2 PUSH2 0xC81 JUMP JUMPDEST DUP3 ADD SWAP2 SWAP1 PUSH1 0x0 MSTORE PUSH1 0x20 PUSH1 0x0 KECCAK256 SWAP1 JUMPDEST DUP2 SLOAD DUP2 MSTORE SWAP1 PUSH1 0x1 ADD SWAP1 PUSH1 0x20 ADD DUP1 DUP4 GT PUSH2 0xC64 JUMPI DUP3 SWAP1 SUB PUSH1 0x1F AND DUP3 ADD SWAP2 JUMPDEST POP POP POP POP POP SWAP9 POP DUP8 DUP1 SLOAD PUSH2 0xC94 SWAP1 PUSH2 0x1FEB JUMP JUMPDEST DUP1 PUSH1 0x1F ADD PUSH1 0x20 DUP1 SWAP2 DIV MUL PUSH1 0x20 ADD PUSH1 0x40 MLOAD SWAP1 DUP2 ADD PUSH1 0x40 MSTORE DUP1 SWAP3 SWAP2 SWAP1 DUP2 DUP2 MSTORE PUSH1 0x20 ADD DUP3 DUP1 SLOAD PUSH2 0xCC0 SWAP1 PUSH2 0x1FEB JUMP JUMPDEST DUP1 ISZERO PUSH2 0xD0D JUMPI DUP1 PUSH1 0x1F LT PUSH2 0xCE2 JUMPI PUSH2 0x100 DUP1 DUP4 SLOAD DIV MUL DUP4 MSTORE SWAP2 PUSH1 0x20 ADD SWAP2 PUSH2 0xD0D JUMP JUMPDEST DUP3 ADD SWAP2 SWAP1 PUSH1 0x0 MSTORE PUSH1 0x20 PUSH1 0x0 KECCAK256 SWAP1 JUMPDEST DUP2 SLOAD DUP2 MSTORE SWAP1 PUSH1 0x1 ADD SWAP1 PUSH1 0x20 ADD DUP1 DUP4 GT PUSH2 0xCF0 JUMPI DUP3 SWAP1 SUB PUSH1 0x1F AND DUP3 ADD SWAP2 JUMPDEST POP POP POP POP POP SWAP8 POP DUP7 DUP1 SLOAD PUSH2 0xD20 SWAP1 PUSH2 0x1FEB JUMP JUMPDEST DUP1 PUSH1 0x1F ADD PUSH1 0x20 DUP1 SWAP2 DIV MUL PUSH1 0x20 ADD PUSH1 0x40 MLOAD SWAP1 DUP2 ADD PUSH1 0x40 MSTORE DUP1 SWAP3 SWAP2 SWAP1 DUP2 DUP2 MSTORE PUSH1 0x20 ADD DUP3 DUP1 SLOAD PUSH2 0xD4C SWAP1 PUSH2 0x1FEB JUMP JUMPDEST DUP1 ISZERO PUSH2 0xD99 JUMPI DUP1 PUSH1 0x1F LT PUSH2 0xD6E JUMPI PUSH2 0x100 DUP1 DUP4 SLOAD DIV MUL DUP4 MSTORE SWAP2 PUSH1 0x20 ADD SWAP2 PUSH2 0xD99 JUMP JUMPDEST DUP3 ADD SWAP2 SWAP1 PUSH1 0x0 MSTORE PUSH1 0x20 PUSH1 0x0 KECCAK256 SWAP1 JUMPDEST DUP2 SLOAD DUP2 MSTORE SWAP1 PUSH1 0x1 ADD SWAP1 PUSH1 0x20 ADD DUP1 DUP4 GT PUSH2 0xD7C JUMPI DUP3 SWAP1 SUB PUSH1 0x1F AND DUP3 ADD SWAP2 JUMPDEST POP POP POP POP POP SWAP7 POP SWAP11 POP SWAP11 POP SWAP11 POP SWAP11 POP SWAP11 POP SWAP11 POP SWAP11 POP SWAP11 POP SWAP11 POP POP POP SWAP2 SWAP4 SWAP6 SWAP8 SWAP10 SWAP1 SWAP3 SWAP5 SWAP7 SWAP9 POP JUMP JUMPDEST PUSH1 0x4 PUSH1 0x20 MSTORE DUP1 PUSH1 0x0 MSTORE PUSH1 0x40 PUSH1 0x0 KECCAK256 PUSH1 0x0 SWAP2 POP SLOAD SWAP1 PUSH2 0x100 EXP SWAP1 DIV PUSH20 0xFFFFFFFFFFFFFFFFFFFFFFFFFFFFFFFFFFFFFFFF AND DUP2 JUMP JUMPDEST DUP1 PUSH1 0x5 PUSH1 0x0 CALLER PUSH20 0xFFFFFFFFFFFFFFFFFFFFFFFFFFFFFFFFFFFFFFFF AND PUSH20 0xFFFFFFFFFFFFFFFFFFFFFFFFFFFFFFFFFFFFFFFF AND DUP2 MSTORE PUSH1 0x20 ADD SWAP1 DUP2 MSTORE PUSH1 0x20 ADD PUSH1 0x0 KECCAK256 SLOAD LT ISZERO PUSH2 0xE76 JUMPI PUSH1 0x40 MLOAD PUSH32 0x8C379A000000000000000000000000000000000000000000000000000000000 DUP2 MSTORE PUSH1 0x4 ADD PUSH2 0xE6D SWAP1 PUSH2 0x1EF9 JUMP JUMPDEST PUSH1 0x40 MLOAD DUP1 SWAP2 SUB SWAP1 REVERT JUMPDEST DUP1 PUSH1 0x5 PUSH1 0x0 CALLER PUSH20 0xFFFFFFFFFFFFFFFFFFFFFFFFFFFFFFFFFFFFFFFF AND PUSH20 0xFFFFFFFFFFFFFFFFFFFFFFFFFFFFFFFFFFFFFFFF AND DUP2 MSTORE PUSH1 0x20 ADD SWAP1 DUP2 MSTORE PUSH1 0x20 ADD PUSH1 0x0 KECCAK256 PUSH1 0x0 DUP3 DUP3 SLOAD PUSH2 0xEC5 SWAP2 SWAP1 PUSH2 0x201C JUMP JUMPDEST SWAP3 POP POP DUP2 SWAP1 SSTORE POP CALLER PUSH20 0xFFFFFFFFFFFFFFFFFFFFFFFFFFFFFFFFFFFFFFFF AND PUSH2 0x8FC DUP3 SWAP1 DUP2 ISZERO MUL SWAP1 PUSH1 0x40 MLOAD PUSH1 0x0 PUSH1 0x40 MLOAD DUP1 DUP4 SUB DUP2 DUP6 DUP9 DUP9 CALL SWAP4 POP POP POP POP ISZERO DUP1 ISZERO PUSH2 0xF12 JUMPI RETURNDATASIZE PUSH1 0x0 DUP1 RETURNDATACOPY RETURNDATASIZE PUSH1 0x0 REVERT JUMPDEST POP CALLER PUSH20 0xFFFFFFFFFFFFFFFFFFFFFFFFFFFFFFFFFFFFFFFF AND PUSH32 0x39DF0E5286A3EF2F42A0BF52F32CFE2C58E5B0405F47FE512F2C2439E4CFE204 PUSH1 0x5 PUSH1 0x0 CALLER PUSH20 0xFFFFFFFFFFFFFFFFFFFFFFFFFFFFFFFFFFFFFFFF AND PUSH20 0xFFFFFFFFFFFFFFFFFFFFFFFFFFFFFFFFFFFFFFFF AND DUP2 MSTORE PUSH1 0x20 ADD SWAP1 DUP2 MSTORE PUSH1 0x20 ADD PUSH1 0x0 KECCAK256 SLOAD PUSH1 0x40 MLOAD PUSH2 0xF98 SWAP2 SWAP1 PUSH2 0x1866 JUMP JUMPDEST PUSH1 0x40 MLOAD DUP1 SWAP2 SUB SWAP1 LOG2 POP JUMP JUMPDEST PUSH1 0x0 DUP1 SLOAD SWAP1 PUSH2 0x100 EXP SWAP1 DIV PUSH20 0xFFFFFFFFFFFFFFFFFFFFFFFFFFFFFFFFFFFFFFFF AND PUSH20 0xFFFFFFFFFFFFFFFFFFFFFFFFFFFFFFFFFFFFFFFF AND CALLER PUSH20 0xFFFFFFFFFFFFFFFFFFFFFFFFFFFFFFFFFFFFFFFF AND EQ PUSH2 0x1031 JUMPI PUSH1 0x40 MLOAD PUSH32 0x8C379A000000000000000000000000000000000000000000000000000000000 DUP2 MSTORE PUSH1 0x4 ADD PUSH2 0x1028 SWAP1 PUSH2 0x1F9C JUMP JUMPDEST PUSH1 0x40 MLOAD DUP1 SWAP2 SUB SWAP1 REVERT JUMPDEST PUSH1 0x0 PUSH1 0x2 PUSH1 0x0 DUP4 DUP2 MSTORE PUSH1 0x20 ADD SWAP1 DUP2 MSTORE PUSH1 0x20 ADD PUSH1 0x0 KECCAK256 SWAP1 POP DUP1 PUSH1 0x5 ADD PUSH1 0x14 SWAP1 SLOAD SWAP1 PUSH2 0x100 EXP SWAP1 DIV PUSH1 0xFF AND ISZERO PUSH2 0x109A JUMPI PUSH1 0x40 MLOAD PUSH32 0x8C379A000000000000000000000000000000000000000000000000000000000 DUP2 MSTORE PUSH1 0x4 ADD PUSH2 0x1091 SWAP1 PUSH2 0x209C JUMP JUMPDEST PUSH1 0x40 MLOAD DUP1 SWAP2 SUB SWAP1 REVERT JUMPDEST PUSH2 0xE10 PUSH1 0x3 PUSH1 0x0 DUP5 DUP2 MSTORE PUSH1 0x20 ADD SWAP1 DUP2 MSTORE PUSH1 0x20 ADD PUSH1 0x0 KECCAK256 SLOAD PUSH2 0x10BB SWAP2 SWAP1 PUSH2 0x1DA1 JUMP JUMPDEST TIMESTAMP GT PUSH2 0x10FC JUMPI PUSH1 0x40 MLOAD PUSH32 0x8C379A000000000000000000000000000000000000000000000000000000000 DUP2 MSTORE PUSH1 0x4 ADD PUSH2 0x10F3 SWAP1 PUSH2 0x2108 JUMP JUMPDEST PUSH1 0x40 MLOAD DUP1 SWAP2 SUB SWAP1 REVERT JUMPDEST PUSH1 0x1 DUP2 PUSH1 0x5 ADD PUSH1 0x14 PUSH2 0x100 EXP DUP2 SLOAD DUP2 PUSH1 0xFF MUL NOT AND SWAP1 DUP4 ISZERO ISZERO MUL OR SWAP1 SSTORE POP PUSH1 0x0 DUP2 PUSH1 0x4 ADD SLOAD DUP3 PUSH1 0x3 ADD SLOAD GT SWAP1 POP DUP3 PUSH32 0xC376607D08AAB8E39AFDDBD149FCBEFAC7C69DCB371A8795626693E5A5A5D10A DUP3 PUSH1 0x40 MLOAD PUSH2 0x1158 SWAP2 SWAP1 PUSH2 0x2128 JUMP JUMPDEST PUSH1 0x40 MLOAD DUP1 SWAP2 SUB SWAP1 LOG2 POP POP POP JUMP JUMPDEST PUSH2 0xE10 DUP2 JUMP JUMPDEST CALLER PUSH20 0xFFFFFFFFFFFFFFFFFFFFFFFFFFFFFFFFFFFFFFFF AND DUP2 PUSH20 0xFFFFFFFFFFFFFFFFFFFFFFFFFFFFFFFFFFFFFFFF AND SUB PUSH2 0x11D9 JUMPI PUSH1 0x40 MLOAD PUSH32 0x8C379A000000000000000000000000000000000000000000000000000000000 DUP2 MSTORE PUSH1 0x4 ADD PUSH2 0x11D0 SWAP1 PUSH2 0x218F JUMP JUMPDEST PUSH1 0x40 MLOAD DUP1 SWAP2 SUB SWAP1 REVERT JUMPDEST DUP1 PUSH1 0x4 PUSH1 0x0 CALLER PUSH20 0xFFFFFFFFFFFFFFFFFFFFFFFFFFFFFFFFFFFFFFFF AND PUSH20 0xFFFFFFFFFFFFFFFFFFFFFFFFFFFFFFFFFFFFFFFF AND DUP2 MSTORE PUSH1 0x20 ADD SWAP1 DUP2 MSTORE PUSH1 0x20 ADD PUSH1 0x0 KECCAK256 PUSH1 0x0 PUSH2 0x100 EXP DUP2 SLOAD DUP2 PUSH20 0xFFFFFFFFFFFFFFFFFFFFFFFFFFFFFFFFFFFFFFFF MUL NOT AND SWAP1 DUP4 PUSH20 0xFFFFFFFFFFFFFFFFFFFFFFFFFFFFFFFFFFFFFFFF AND MUL OR SWAP1 SSTORE POP DUP1 PUSH20 0xFFFFFFFFFFFFFFFFFFFFFFFFFFFFFFFFFFFFFFFF AND CALLER PUSH20 0xFFFFFFFFFFFFFFFFFFFFFFFFFFFFFFFFFFFFFFFF AND PUSH32 0xA0FF2FA6909FE4DDD94349FC9D8E2932F3DFE666216F3CC2AA3A72F5A03B655E PUSH1 0x40 MLOAD PUSH1 0x40 MLOAD DUP1 SWAP2 SUB SWAP1 LOG3 POP JUMP JUMPDEST PUSH1 0x5 PUSH1 0x20 MSTORE DUP1 PUSH1 0x0 MSTORE PUSH1 0x40 PUSH1 0x0 KECCAK256 PUSH1 0x0 SWAP2 POP SWAP1 POP SLOAD DUP2 JUMP JUMPDEST PUSH1 0x2 PUSH1 0x20 MSTORE DUP1 PUSH1 0x0 MSTORE PUSH1 0x40 PUSH1 0x0 KECCAK256 PUSH1 0x0 SWAP2 POP SWAP1 POP DUP1 PUSH1 0x0 ADD DUP1 SLOAD PUSH2 0x12EF SWAP1 PUSH2 0x1FEB JUMP JUMPDEST DUP1 PUSH1 0x1F ADD PUSH1 0x20 DUP1 SWAP2 DIV MUL PUSH1 0x20 ADD PUSH1 0x40 MLOAD SWAP1 DUP2 ADD PUSH1 0x40 MSTORE DUP1 SWAP3 SWAP2 SWAP1 DUP2 DUP2 MSTORE PUSH1 0x20 ADD DUP3 DUP1 SLOAD PUSH2 0x131B SWAP1 PUSH2 0x1FEB JUMP JUMPDEST DUP1 ISZERO PUSH2 0x1368 JUMPI DUP1 PUSH1 0x1F LT PUSH2 0x133D JUMPI PUSH2 0x100 DUP1 DUP4 SLOAD DIV MUL DUP4 MSTORE SWAP2 PUSH1 0x20 ADD SWAP2 PUSH2 0x1368 JUMP JUMPDEST DUP3 ADD SWAP2 SWAP1 PUSH1 0x0 MSTORE PUSH1 0x20 PUSH1 0x0 KECCAK256 SWAP1 JUMPDEST DUP2 SLOAD DUP2 MSTORE SWAP1 PUSH1 0x1 ADD SWAP1 PUSH1 0x20 ADD DUP1 DUP4 GT PUSH2 0x134B JUMPI DUP3 SWAP1 SUB PUSH1 0x1F AND DUP3 ADD SWAP2 JUMPDEST POP POP POP POP POP SWAP1 DUP1 PUSH1 0x1 ADD DUP1 SLOAD PUSH2 0x137D SWAP1 PUSH2 0x1FEB JUMP JUMPDEST DUP1 PUSH1 0x1F ADD PUSH1 0x20 DUP1 SWAP2 DIV MUL PUSH1 0x20 ADD PUSH1 0x40 MLOAD SWAP1 DUP2 ADD PUSH1 0x40 MSTORE DUP1 SWAP3 SWAP2 SWAP1 DUP2 DUP2 MSTORE PUSH1 0x20 ADD DUP3 DUP1 SLOAD PUSH2 0x13A9 SWAP1 PUSH2 0x1FEB JUMP JUMPDEST DUP1 ISZERO PUSH2 0x13F6 JUMPI DUP1 PUSH1 0x1F LT PUSH2 0x13CB JUMPI PUSH2 0x100 DUP1 DUP4 SLOAD DIV MUL DUP4 MSTORE SWAP2 PUSH1 0x20 ADD SWAP2 PUSH2 0x13F6 JUMP JUMPDEST DUP3 ADD SWAP2 SWAP1 PUSH1 0x0 MSTORE PUSH1 0x20 PUSH1 0x0 KECCAK256 SWAP1 JUMPDEST DUP2 SLOAD DUP2 MSTORE SWAP1 PUSH1 0x1 ADD SWAP1 PUSH1 0x20 ADD DUP1 DUP4 GT PUSH2 0x13D9 JUMPI DUP3 SWAP1 SUB PUSH1 0x1F AND DUP3 ADD SWAP2 JUMPDEST POP POP POP POP POP SWAP1 DUP1 PUSH1 0x2 ADD DUP1 SLOAD PUSH2 0x140B SWAP1 PUSH2 0x1FEB JUMP JUMPDEST DUP1 PUSH1 0x1F ADD PUSH1 0x20 DUP1 SWAP2 DIV MUL PUSH1 0x20 ADD PUSH1 0x40 MLOAD SWAP1 DUP2 ADD PUSH1 0x40 MSTORE DUP1 SWAP3 SWAP2 SWAP1 DUP2 DUP2 MSTORE PUSH1 0x20 ADD DUP3 DUP1 SLOAD PUSH2 0x1437 SWAP1 PUSH2 0x1FEB JUMP JUMPDEST DUP1 ISZERO PUSH2 0x1484 JUMPI DUP1 PUSH1 0x1F LT PUSH2 0x1459 JUMPI PUSH2 0x100 DUP1 DUP4 SLOAD DIV MUL DUP4 MSTORE SWAP2 PUSH1 0x20 ADD SWAP2 PUSH2 0x1484 JUMP JUMPDEST DUP3 ADD SWAP2 SWAP1 PUSH1 0x0 MSTORE PUSH1 0x20 PUSH1 0x0 KECCAK256 SWAP1 JUMPDEST DUP2 SLOAD DUP2 MSTORE SWAP1 PUSH1 0x1 ADD SWAP1 PUSH1 0x20 ADD DUP1 DUP4 GT PUSH2 0x1467 JUMPI DUP3 SWAP1 SUB PUSH1 0x1F AND DUP3 ADD SWAP2 JUMPDEST POP POP POP POP POP SWAP1 DUP1 PUSH1 0x3 ADD SLOAD SWAP1 DUP1 PUSH1 0x4 ADD SLOAD SWAP1 DUP1 PUSH1 0x5 ADD PUSH1 0x0 SWAP1 SLOAD SWAP1 PUSH2 0x100 EXP SWAP1 DIV PUSH20 0xFFFFFFFFFFFFFFFFFFFFFFFFFFFFFFFFFFFFFFFF AND SWAP1 DUP1 PUSH1 0x5 ADD PUSH1 0x14 SWAP1 SLOAD SWAP1 PUSH2 0x100 EXP SWAP1 DIV PUSH1 0xFF AND SWAP1 POP DUP8 JUMP JUMPDEST PUSH1 0x0 CALLVALUE GT PUSH2 0x1516 JUMPI PUSH1 0x40 MLOAD PUSH32 0x8C379A000000000000000000000000000000000000000000000000000000000 DUP2 MSTORE PUSH1 0x4 ADD PUSH2 0x150D SWAP1 PUSH2 0x21FB JUMP JUMPDEST PUSH1 0x40 MLOAD DUP1 SWAP2 SUB SWAP1 REVERT JUMPDEST CALLVALUE PUSH1 0x5 PUSH1 0x0 CALLER PUSH20 0xFFFFFFFFFFFFFFFFFFFFFFFFFFFFFFFFFFFFFFFF AND PUSH20 0xFFFFFFFFFFFFFFFFFFFFFFFFFFFFFFFFFFFFFFFF AND DUP2 MSTORE PUSH1 0x20 ADD SWAP1 DUP2 MSTORE PUSH1 0x20 ADD PUSH1 0x0 KECCAK256 PUSH1 0x0 DUP3 DUP3 SLOAD PUSH2 0x1565 SWAP2 SWAP1 PUSH2 0x1DA1 JUMP JUMPDEST SWAP3 POP POP DUP2 SWAP1 SSTORE POP CALLER PUSH20 0xFFFFFFFFFFFFFFFFFFFFFFFFFFFFFFFFFFFFFFFF AND PUSH32 0x39DF0E5286A3EF2F42A0BF52F32CFE2C58E5B0405F47FE512F2C2439E4CFE204 PUSH1 0x5 PUSH1 0x0 CALLER PUSH20 0xFFFFFFFFFFFFFFFFFFFFFFFFFFFFFFFFFFFFFFFF AND PUSH20 0xFFFFFFFFFFFFFFFFFFFFFFFFFFFFFFFFFFFFFFFF AND DUP2 MSTORE PUSH1 0x20 ADD SWAP1 DUP2 MSTORE PUSH1 0x20 ADD PUSH1 0x0 KECCAK256 SLOAD PUSH1 0x40 MLOAD PUSH2 0x15F1 SWAP2 SWAP1 PUSH2 0x1866 JUMP JUMPDEST PUSH1 0x40 MLOAD DUP1 SWAP2 SUB SWAP1 LOG2 JUMP JUMPDEST PUSH1 0x6 SLOAD DUP2 JUMP JUMPDEST PUSH1 0x0 DUP1 SLOAD SWAP1 PUSH2 0x100 EXP SWAP1 DIV PUSH20 0xFFFFFFFFFFFFFFFFFFFFFFFFFFFFFFFFFFFFFFFF AND DUP2 JUMP JUMPDEST PUSH1 0x0 PUSH1 0x2 PUSH1 0x0 PUSH1 0x1 SLOAD DUP2 MSTORE PUSH1 0x20 ADD SWAP1 DUP2 MSTORE PUSH1 0x20 ADD PUSH1 0x0 KECCAK256 SWAP1 POP DUP4 DUP2 PUSH1 0x0 ADD SWAP1 DUP2 PUSH2 0x164F SWAP2 SWAP1 PUSH2 0x23C7 JUMP JUMPDEST POP DUP3 DUP2 PUSH1 0x1 ADD SWAP1 DUP2 PUSH2 0x1661 SWAP2 SWAP1 PUSH2 0x23C7 JUMP JUMPDEST POP DUP2 DUP2 PUSH1 0x2 ADD SWAP1 DUP2 PUSH2 0x1673 SWAP2 SWAP1 PUSH2 0x23C7 JUMP JUMPDEST POP CALLER DUP2 PUSH1 0x5 ADD PUSH1 0x0 PUSH2 0x100 EXP DUP2 SLOAD DUP2 PUSH20 0xFFFFFFFFFFFFFFFFFFFFFFFFFFFFFFFFFFFFFFFF MUL NOT AND SWAP1 DUP4 PUSH20 0xFFFFFFFFFFFFFFFFFFFFFFFFFFFFFFFFFFFFFFFF AND MUL OR SWAP1 SSTORE POP TIMESTAMP PUSH1 0x3 PUSH1 0x0 PUSH1 0x1 SLOAD DUP2 MSTORE PUSH1 0x20 ADD SWAP1 DUP2 MSTORE PUSH1 0x20 ADD PUSH1 0x0 KECCAK256 DUP2 SWAP1 SSTORE POP PUSH1 0x1 SLOAD PUSH32 0xF41EA29A335564573DD96630877E28E7529614E42115E1667BB721CB1A8BD0B0 DUP6 CALLER PUSH1 0x40 MLOAD PUSH2 0x1705 SWAP3 SWAP2 SWAP1 PUSH2 0x2499 JUMP JUMPDEST PUSH1 0x40 MLOAD DUP1 SWAP2 SUB SWAP1 LOG2 PUSH1 0x1 PUSH1 0x0 DUP2 SLOAD DUP1 SWAP3 SWAP2 SWAP1 PUSH2 0x1720 SWAP1 PUSH2 0x24C9 JUMP JUMPDEST SWAP2 SWAP1 POP SSTORE POP POP POP POP POP JUMP JUMPDEST PUSH1 0x0 PUSH1 0x40 MLOAD SWAP1 POP SWAP1 JUMP JUMPDEST PUSH1 0x0 DUP1 REVERT JUMPDEST PUSH1 0x0 DUP1 REVERT JUMPDEST PUSH1 0x0 PUSH20 0xFFFFFFFFFFFFFFFFFFFFFFFFFFFFFFFFFFFFFFFF DUP3 AND SWAP1 POP SWAP2 SWAP1 POP JUMP JUMPDEST PUSH1 0x0 PUSH2 0x176A DUP3 PUSH2 0x173F JUMP JUMPDEST SWAP1 POP SWAP2 SWAP1 POP JUMP JUMPDEST PUSH2 0x177A DUP2 PUSH2 0x175F JUMP JUMPDEST DUP2 EQ PUSH2 0x1785 JUMPI PUSH1 0x0 DUP1 REVERT JUMPDEST POP JUMP JUMPDEST PUSH1 0x0 DUP2 CALLDATALOAD SWAP1 POP PUSH2 0x1797 DUP2 PUSH2 0x1771 JUMP JUMPDEST SWAP3 SWAP2 POP POP JUMP JUMPDEST PUSH1 0x0 PUSH1 0x20 DUP3 DUP5 SUB SLT ISZERO PUSH2 0x17B3 JUMPI PUSH2 0x17B2 PUSH2 0x1735 JUMP JUMPDEST JUMPDEST PUSH1 0x0 PUSH2 0x17C1 DUP5 DUP3 DUP6 ADD PUSH2 0x1788 JUMP JUMPDEST SWAP2 POP POP SWAP3 SWAP2 POP POP JUMP JUMPDEST PUSH2 0x17D3 DUP2 PUSH2 0x175F JUMP JUMPDEST DUP3 MSTORE POP POP JUMP JUMPDEST PUSH1 0x0 PUSH1 0x20 DUP3 ADD SWAP1 POP PUSH2 0x17EE PUSH1 0x0 DUP4 ADD DUP5 PUSH2 0x17CA JUMP JUMPDEST SWAP3 SWAP2 POP POP JUMP JUMPDEST PUSH1 0x0 DUP2 SWAP1 POP SWAP2 SWAP1 POP JUMP JUMPDEST PUSH2 0x1807 DUP2 PUSH2 0x17F4 JUMP JUMPDEST DUP2 EQ PUSH2 0x1812 JUMPI PUSH1 0x0 DUP1 REVERT JUMPDEST POP JUMP JUMPDEST PUSH1 0x0 DUP2 CALLDATALOAD SWAP1 POP PUSH2 0x1824 DUP2 PUSH2 0x17FE JUMP JUMPDEST SWAP3 SWAP2 POP POP JUMP JUMPDEST PUSH1 0x0 PUSH1 0x20 DUP3 DUP5 SUB SLT ISZERO PUSH2 0x1840 JUMPI PUSH2 0x183F PUSH2 0x1735 JUMP JUMPDEST JUMPDEST PUSH1 0x0 PUSH2 0x184E DUP5 DUP3 DUP6 ADD PUSH2 0x1815 JUMP JUMPDEST SWAP2 POP POP SWAP3 SWAP2 POP POP JUMP JUMPDEST PUSH2 0x1860 DUP2 PUSH2 0x17F4 JUMP JUMPDEST DUP3 MSTORE POP POP JUMP JUMPDEST PUSH1 0x0 PUSH1 0x20 DUP3 ADD SWAP1 POP PUSH2 0x187B PUSH1 0x0 DUP4 ADD DUP5 PUSH2 0x1857 JUMP JUMPDEST SWAP3 SWAP2 POP POP JUMP JUMPDEST PUSH1 0x0 DUP2 ISZERO ISZERO SWAP1 POP SWAP2 SWAP1 POP JUMP JUMPDEST PUSH2 0x1896 DUP2 PUSH2 0x1881 JUMP JUMPDEST DUP2 EQ PUSH2 0x18A1 JUMPI PUSH1 0x0 DUP1 REVERT JUMPDEST POP JUMP JUMPDEST PUSH1 0x0 DUP2 CALLDATALOAD SWAP1 POP PUSH2 0x18B3 DUP2 PUSH2 0x188D JUMP JUMPDEST SWAP3 SWAP2 POP POP JUMP JUMPDEST PUSH1 0x0 DUP1 PUSH1 0x40 DUP4 DUP6 SUB SLT ISZERO PUSH2 0x18D0 JUMPI PUSH2 0x18CF PUSH2 0x1735 JUMP JUMPDEST JUMPDEST PUSH1 0x0 PUSH2 0x18DE DUP6 DUP3 DUP7 ADD PUSH2 0x1815 JUMP JUMPDEST SWAP3 POP POP PUSH1 0x20 PUSH2 0x18EF DUP6 DUP3 DUP7 ADD PUSH2 0x18A4 JUMP JUMPDEST SWAP2 POP POP SWAP3 POP SWAP3 SWAP1 POP JUMP JUMPDEST PUSH1 0x0 DUP2 MLOAD SWAP1 POP SWAP2 SWAP1 POP JUMP JUMPDEST PUSH1 0x0 DUP3 DUP3 MSTORE PUSH1 0x20 DUP3 ADD SWAP1 POP SWAP3 SWAP2 POP POP JUMP JUMPDEST PUSH1 0x0 JUMPDEST DUP4 DUP2 LT ISZERO PUSH2 0x1933 JUMPI DUP1 DUP3 ADD MLOAD DUP2 DUP5 ADD MSTORE PUSH1 0x20 DUP2 ADD SWAP1 POP PUSH2 0x1918 JUMP JUMPDEST PUSH1 0x0 DUP5 DUP5 ADD MSTORE POP POP POP POP JUMP JUMPDEST PUSH1 0x0 PUSH1 0x1F NOT PUSH1 0x1F DUP4 ADD AND SWAP1 POP SWAP2 SWAP1 POP JUMP JUMPDEST PUSH1 0x0 PUSH2 0x195B DUP3 PUSH2 0x18F9 JUMP JUMPDEST PUSH2 0x1965 DUP2 DUP6 PUSH2 0x1904 JUMP JUMPDEST SWAP4 POP PUSH2 0x1975 DUP2 DUP6 PUSH1 0x20 DUP7 ADD PUSH2 0x1915 JUMP JUMPDEST PUSH2 0x197E DUP2 PUSH2 0x193F JUMP JUMPDEST DUP5 ADD SWAP2 POP POP SWAP3 SWAP2 POP POP JUMP JUMPDEST PUSH2 0x1992 DUP2 PUSH2 0x1881 JUMP JUMPDEST DUP3 MSTORE POP POP JUMP JUMPDEST PUSH1 0x0 PUSH2 0x120 DUP3 ADD SWAP1 POP DUP2 DUP2 SUB PUSH1 0x0 DUP4 ADD MSTORE PUSH2 0x19B3 DUP2 DUP13 PUSH2 0x1950 JUMP JUMPDEST SWAP1 POP DUP2 DUP2 SUB PUSH1 0x20 DUP4 ADD MSTORE PUSH2 0x19C7 DUP2 DUP12 PUSH2 0x1950 JUMP JUMPDEST SWAP1 POP DUP2 DUP2 SUB PUSH1 0x40 DUP4 ADD MSTORE PUSH2 0x19DB DUP2 DUP11 PUSH2 0x1950 JUMP JUMPDEST SWAP1 POP PUSH2 0x19EA PUSH1 0x60 DUP4 ADD DUP10 PUSH2 0x1857 JUMP JUMPDEST PUSH2 0x19F7 PUSH1 0x80 DUP4 ADD DUP9 PUSH2 0x1857 JUMP JUMPDEST PUSH2 0x1A04 PUSH1 0xA0 DUP4 ADD DUP8 PUSH2 0x17CA JUMP JUMPDEST PUSH2 0x1A11 PUSH1 0xC0 DUP4 ADD DUP7 PUSH2 0x1989 JUMP JUMPDEST PUSH2 0x1A1E PUSH1 0xE0 DUP4 ADD DUP6 PUSH2 0x1989 JUMP JUMPDEST PUSH2 0x1A2C PUSH2 0x100 DUP4 ADD DUP5 PUSH2 0x1989 JUMP JUMPDEST SWAP11 SWAP10 POP POP POP POP POP POP POP POP POP POP JUMP JUMPDEST PUSH1 0x0 PUSH1 0xE0 DUP3 ADD SWAP1 POP DUP2 DUP2 SUB PUSH1 0x0 DUP4 ADD MSTORE PUSH2 0x1A54 DUP2 DUP11 PUSH2 0x1950 JUMP JUMPDEST SWAP1 POP DUP2 DUP2 SUB PUSH1 0x20 DUP4 ADD MSTORE PUSH2 0x1A68 DUP2 DUP10 PUSH2 0x1950 JUMP JUMPDEST SWAP1 POP DUP2 DUP2 SUB PUSH1 0x40 DUP4 ADD MSTORE PUSH2 0x1A7C DUP2 DUP9 PUSH2 0x1950 JUMP JUMPDEST SWAP1 POP PUSH2 0x1A8B PUSH1 0x60 DUP4 ADD DUP8 PUSH2 0x1857 JUMP JUMPDEST PUSH2 0x1A98 PUSH1 0x80 DUP4 ADD DUP7 PUSH2 0x1857 JUMP JUMPDEST PUSH2 0x1AA5 PUSH1 0xA0 DUP4 ADD DUP6 PUSH2 0x17CA JUMP JUMPDEST PUSH2 0x1AB2 PUSH1 0xC0 DUP4 ADD DUP5 PUSH2 0x1989 JUMP JUMPDEST SWAP9 SWAP8 POP POP POP POP POP POP POP POP JUMP JUMPDEST PUSH1 0x0 DUP1 REVERT JUMPDEST PUSH1 0x0 DUP1 REVERT JUMPDEST PUSH32 0x4E487B7100000000000000000000000000000000000000000000000000000000 PUSH1 0x0 MSTORE PUSH1 0x41 PUSH1 0x4 MSTORE PUSH1 0x24 PUSH1 0x0 REVERT JUMPDEST PUSH2 0x1B00 DUP3 PUSH2 0x193F JUMP JUMPDEST DUP2 ADD DUP2 DUP2 LT PUSH8 0xFFFFFFFFFFFFFFFF DUP3 GT OR ISZERO PUSH2 0x1B1F JUMPI PUSH2 0x1B1E PUSH2 0x1AC8 JUMP JUMPDEST JUMPDEST DUP1 PUSH1 0x40 MSTORE POP POP POP JUMP JUMPDEST PUSH1 0x0 PUSH2 0x1B32 PUSH2 0x172B JUMP JUMPDEST SWAP1 POP PUSH2 0x1B3E DUP3 DUP3 PUSH2 0x1AF7 JUMP JUMPDEST SWAP2 SWAP1 POP JUMP JUMPDEST PUSH1 0x0 PUSH8 0xFFFFFFFFFFFFFFFF DUP3 GT ISZERO PUSH2 0x1B5E JUMPI PUSH2 0x1B5D PUSH2 0x1AC8 JUMP JUMPDEST JUMPDEST PUSH2 0x1B67 DUP3 PUSH2 0x193F JUMP JUMPDEST SWAP1 POP PUSH1 0x20 DUP2 ADD SWAP1 POP SWAP2 SWAP1 POP JUMP JUMPDEST DUP3 DUP2 DUP4 CALLDATACOPY PUSH1 0x0 DUP4 DUP4 ADD MSTORE POP POP POP JUMP JUMPDEST PUSH1 0x0 PUSH2 0x1B96 PUSH2 0x1B91 DUP5 PUSH2 0x1B43 JUMP JUMPDEST PUSH2 0x1B28 JUMP JUMPDEST SWAP1 POP DUP3 DUP2 MSTORE PUSH1 0x20 DUP2 ADD DUP5 DUP5 DUP5 ADD GT ISZERO PUSH2 0x1BB2 JUMPI PUSH2 0x1BB1 PUSH2 0x1AC3 JUMP JUMPDEST JUMPDEST PUSH2 0x1BBD DUP5 DUP3 DUP6 PUSH2 0x1B74 JUMP JUMPDEST POP SWAP4 SWAP3 POP POP POP JUMP JUMPDEST PUSH1 0x0 DUP3 PUSH1 0x1F DUP4 ADD SLT PUSH2 0x1BDA JUMPI PUSH2 0x1BD9 PUSH2 0x1ABE JUMP JUMPDEST JUMPDEST DUP2 CALLDATALOAD PUSH2 0x1BEA DUP5 DUP3 PUSH1 0x20 DUP7 ADD PUSH2 0x1B83 JUMP JUMPDEST SWAP2 POP POP SWAP3 SWAP2 POP POP JUMP JUMPDEST PUSH1 0x0 DUP1 PUSH1 0x0 PUSH1 0x60 DUP5 DUP7 SUB SLT ISZERO PUSH2 0x1C0C JUMPI PUSH2 0x1C0B PUSH2 0x1735 JUMP JUMPDEST JUMPDEST PUSH1 0x0 DUP5 ADD CALLDATALOAD PUSH8 0xFFFFFFFFFFFFFFFF DUP2 GT ISZERO PUSH2 0x1C2A JUMPI PUSH2 0x1C29 PUSH2 0x173A JUMP JUMPDEST JUMPDEST PUSH2 0x1C36 DUP7 DUP3 DUP8 ADD PUSH2 0x1BC5 JUMP JUMPDEST SWAP4 POP POP PUSH1 0x20 DUP5 ADD CALLDATALOAD PUSH8 0xFFFFFFFFFFFFFFFF DUP2 GT ISZERO PUSH2 0x1C57 JUMPI PUSH2 0x1C56 PUSH2 0x173A JUMP JUMPDEST JUMPDEST PUSH2 0x1C63 DUP7 DUP3 DUP8 ADD PUSH2 0x1BC5 JUMP JUMPDEST SWAP3 POP POP PUSH1 0x40 DUP5 ADD CALLDATALOAD PUSH8 0xFFFFFFFFFFFFFFFF DUP2 GT ISZERO PUSH2 0x1C84 JUMPI PUSH2 0x1C83 PUSH2 0x173A JUMP JUMPDEST JUMPDEST PUSH2 0x1C90 DUP7 DUP3 DUP8 ADD PUSH2 0x1BC5 JUMP JUMPDEST SWAP2 POP POP SWAP3 POP SWAP3 POP SWAP3 JUMP JUMPDEST PUSH32 0x5265706F727420646F65736E2774206578697374000000000000000000000000 PUSH1 0x0 DUP3 ADD MSTORE POP JUMP JUMPDEST PUSH1 0x0 PUSH2 0x1CD0 PUSH1 0x14 DUP4 PUSH2 0x1904 JUMP JUMPDEST SWAP2 POP PUSH2 0x1CDB DUP3 PUSH2 0x1C9A JUMP JUMPDEST PUSH1 0x20 DUP3 ADD SWAP1 POP SWAP2 SWAP1 POP JUMP JUMPDEST PUSH1 0x0 PUSH1 0x20 DUP3 ADD SWAP1 POP DUP2 DUP2 SUB PUSH1 0x0 DUP4 ADD MSTORE PUSH2 0x1CFF DUP2 PUSH2 0x1CC3 JUMP JUMPDEST SWAP1 POP SWAP2 SWAP1 POP JUMP JUMPDEST PUSH32 0x566F74696E6720636C6F73656400000000000000000000000000000000000000 PUSH1 0x0 DUP3 ADD MSTORE POP JUMP JUMPDEST PUSH1 0x0 PUSH2 0x1D3C PUSH1 0xD DUP4 PUSH2 0x1904 JUMP JUMPDEST SWAP2 POP PUSH2 0x1D47 DUP3 PUSH2 0x1D06 JUMP JUMPDEST PUSH1 0x20 DUP3 ADD SWAP1 POP SWAP2 SWAP1 POP JUMP JUMPDEST PUSH1 0x0 PUSH1 0x20 DUP3 ADD SWAP1 POP DUP2 DUP2 SUB PUSH1 0x0 DUP4 ADD MSTORE PUSH2 0x1D6B DUP2 PUSH2 0x1D2F JUMP JUMPDEST SWAP1 POP SWAP2 SWAP1 POP JUMP JUMPDEST PUSH32 0x4E487B7100000000000000000000000000000000000000000000000000000000 PUSH1 0x0 MSTORE PUSH1 0x11 PUSH1 0x4 MSTORE PUSH1 0x24 PUSH1 0x0 REVERT JUMPDEST PUSH1 0x0 PUSH2 0x1DAC DUP3 PUSH2 0x17F4 JUMP JUMPDEST SWAP2 POP PUSH2 0x1DB7 DUP4 PUSH2 0x17F4 JUMP JUMPDEST SWAP3 POP DUP3 DUP3 ADD SWAP1 POP DUP1 DUP3 GT ISZERO PUSH2 0x1DCF JUMPI PUSH2 0x1DCE PUSH2 0x1D72 JUMP JUMPDEST JUMPDEST SWAP3 SWAP2 POP POP JUMP JUMPDEST PUSH32 0x566F74696E6720706572696F6420656E64656400000000000000000000000000 PUSH1 0x0 DUP3 ADD MSTORE POP JUMP JUMPDEST PUSH1 0x0 PUSH2 0x1E0B PUSH1 0x13 DUP4 PUSH2 0x1904 JUMP JUMPDEST SWAP2 POP PUSH2 0x1E16 DUP3 PUSH2 0x1DD5 JUMP JUMPDEST PUSH1 0x20 DUP3 ADD SWAP1 POP SWAP2 SWAP1 POP JUMP JUMPDEST PUSH1 0x0 PUSH1 0x20 DUP3 ADD SWAP1 POP DUP2 DUP2 SUB PUSH1 0x0 DUP4 ADD MSTORE PUSH2 0x1E3A DUP2 PUSH2 0x1DFE JUMP JUMPDEST SWAP1 POP SWAP2 SWAP1 POP JUMP JUMPDEST PUSH32 0x416C726561647920766F74656400000000000000000000000000000000000000 PUSH1 0x0 DUP3 ADD MSTORE POP JUMP JUMPDEST PUSH1 0x0 PUSH2 0x1E77 PUSH1 0xD DUP4 PUSH2 0x1904 JUMP JUMPDEST SWAP2 POP PUSH2 0x1E82 DUP3 PUSH2 0x1E41 JUMP JUMPDEST PUSH1 0x20 DUP3 ADD SWAP1 POP SWAP2 SWAP1 POP JUMP JUMPDEST PUSH1 0x0 PUSH1 0x20 DUP3 ADD SWAP1 POP DUP2 DUP2 SUB PUSH1 0x0 DUP4 ADD MSTORE PUSH2 0x1EA6 DUP2 PUSH2 0x1E6A JUMP JUMPDEST SWAP1 POP SWAP2 SWAP1 POP JUMP JUMPDEST PUSH32 0x496E73756666696369656E74207374616B650000000000000000000000000000 PUSH1 0x0 DUP3 ADD MSTORE POP JUMP JUMPDEST PUSH1 0x0 PUSH2 0x1EE3 PUSH1 0x12 DUP4 PUSH2 0x1904 JUMP JUMPDEST SWAP2 POP PUSH2 0x1EEE DUP3 PUSH2 0x1EAD JUMP JUMPDEST PUSH1 0x20 DUP3 ADD SWAP1 POP SWAP2 SWAP1 POP JUMP JUMPDEST PUSH1 0x0 PUSH1 0x20 DUP3 ADD SWAP1 POP DUP2 DUP2 SUB PUSH1 0x0 DUP4 ADD MSTORE PUSH2 0x1F12 DUP2 PUSH2 0x1ED6 JUMP JUMPDEST SWAP1 POP SWAP2 SWAP1 POP JUMP JUMPDEST PUSH1 0x0 PUSH1 0x60 DUP3 ADD SWAP1 POP PUSH2 0x1F2E PUSH1 0x0 DUP4 ADD DUP7 PUSH2 0x17CA JUMP JUMPDEST PUSH2 0x1F3B PUSH1 0x20 DUP4 ADD DUP6 PUSH2 0x1989 JUMP JUMPDEST PUSH2 0x1F48 PUSH1 0x40 DUP4 ADD DUP5 PUSH2 0x1857 JUMP JUMPDEST SWAP5 SWAP4 POP POP POP POP JUMP JUMPDEST PUSH32 0x4F6E6C792061646D696E00000000000000000000000000000000000000000000 PUSH1 0x0 DUP3 ADD MSTORE POP JUMP JUMPDEST PUSH1 0x0 PUSH2 0x1F86 PUSH1 0xA DUP4 PUSH2 0x1904 JUMP JUMPDEST SWAP2 POP PUSH2 0x1F91 DUP3 PUSH2 0x1F50 JUMP JUMPDEST PUSH1 0x20 DUP3 ADD SWAP1 POP SWAP2 SWAP1 POP JUMP JUMPDEST PUSH1 0x0 PUSH1 0x20 DUP3 ADD SWAP1 POP DUP2 DUP2 SUB PUSH1 0x0 DUP4 ADD MSTORE PUSH2 0x1FB5 DUP2 PUSH2 0x1F79 JUMP JUMPDEST SWAP1 POP SWAP2 SWAP1 POP JUMP JUMPDEST PUSH32 0x4E487B7100000000000000000000000000000000000000000000000000000000 PUSH1 0x0 MSTORE PUSH1 0x22 PUSH1 0x4 MSTORE PUSH1 0x24 PUSH1 0x0 REVERT JUMPDEST PUSH1 0x0 PUSH1 0x2 DUP3 DIV SWAP1 POP PUSH1 0x1 DUP3 AND DUP1 PUSH2 0x2003 JUMPI PUSH1 0x7F DUP3 AND SWAP2 POP JUMPDEST PUSH1 0x20 DUP3 LT DUP2 SUB PUSH2 0x2016 JUMPI PUSH2 0x2015 PUSH2 0x1FBC JUMP JUMPDEST JUMPDEST POP SWAP2 SWAP1 POP JUMP JUMPDEST PUSH1 0x0 PUSH2 0x2027 DUP3 PUSH2 0x17F4 JUMP JUMPDEST SWAP2 POP PUSH2 0x2032 DUP4 PUSH2 0x17F4 JUMP JUMPDEST SWAP3 POP DUP3 DUP3 SUB SWAP1 POP DUP2 DUP2 GT ISZERO PUSH2 0x204A JUMPI PUSH2 0x2049 PUSH2 0x1D72 JUMP JUMPDEST JUMPDEST SWAP3 SWAP2 POP POP JUMP JUMPDEST PUSH32 0x416C7265616479207265736F6C76656400000000000000000000000000000000 PUSH1 0x0 DUP3 ADD MSTORE POP JUMP JUMPDEST PUSH1 0x0 PUSH2 0x2086 PUSH1 0x10 DUP4 PUSH2 0x1904 JUMP JUMPDEST SWAP2 POP PUSH2 0x2091 DUP3 PUSH2 0x2050 JUMP JUMPDEST PUSH1 0x20 DUP3 ADD SWAP1 POP SWAP2 SWAP1 POP JUMP JUMPDEST PUSH1 0x0 PUSH1 0x20 DUP3 ADD SWAP1 POP DUP2 DUP2 SUB PUSH1 0x0 DUP4 ADD MSTORE PUSH2 0x20B5 DUP2 PUSH2 0x2079 JUMP JUMPDEST SWAP1 POP SWAP2 SWAP1 POP JUMP JUMPDEST PUSH32 0x566F74696E67207374696C6C206F70656E000000000000000000000000000000 PUSH1 0x0 DUP3 ADD MSTORE POP JUMP JUMPDEST PUSH1 0x0 PUSH2 0x20F2 PUSH1 0x11 DUP4 PUSH2 0x1904 JUMP JUMPDEST SWAP2 POP PUSH2 0x20FD DUP3 PUSH2 0x20BC JUMP JUMPDEST PUSH1 0x20 DUP3 ADD SWAP1 POP SWAP2 SWAP1 POP JUMP JUMPDEST PUSH1 0x0 PUSH1 0x20 DUP3 ADD SWAP1 POP DUP2 DUP2 SUB PUSH1 0x0 DUP4 ADD MSTORE PUSH2 0x2121 DUP2 PUSH2 0x20E5 JUMP JUMPDEST SWAP1 POP SWAP2 SWAP1 POP JUMP JUMPDEST PUSH1 0x0 PUSH1 0x20 DUP3 ADD SWAP1 POP PUSH2 0x213D PUSH1 0x0 DUP4 ADD DUP5 PUSH2 0x1989 JUMP JUMPDEST SWAP3 SWAP2 POP POP JUMP JUMPDEST PUSH32 0x43616E6E6F742064656C656761746520746F2073656C66000000000000000000 PUSH1 0x0 DUP3 ADD MSTORE POP JUMP JUMPDEST PUSH1 0x0 PUSH2 0x2179 PUSH1 0x17 DUP4 PUSH2 0x1904 JUMP JUMPDEST SWAP2 POP PUSH2 0x2184 DUP3 PUSH2 0x2143 JUMP JUMPDEST PUSH1 0x20 DUP3 ADD SWAP1 POP SWAP2 SWAP1 POP JUMP JUMPDEST PUSH1 0x0 PUSH1 0x20 DUP3 ADD SWAP1 POP DUP2 DUP2 SUB PUSH1 0x0 DUP4 ADD MSTORE PUSH2 0x21A8 DUP2 PUSH2 0x216C JUMP JUMPDEST SWAP1 POP SWAP2 SWAP1 POP JUMP JUMPDEST PUSH32 0x4D7573742073656E642045544800000000000000000000000000000000000000 PUSH1 0x0 DUP3 ADD MSTORE POP JUMP JUMPDEST PUSH1 0x0 PUSH2 0x21E5 PUSH1 0xD DUP4 PUSH2 0x1904 JUMP JUMPDEST SWAP2 POP PUSH2 0x21F0 DUP3 PUSH2 0x21AF JUMP JUMPDEST PUSH1 0x20 DUP3 ADD SWAP1 POP SWAP2 SWAP1 POP JUMP JUMPDEST PUSH1 0x0 PUSH1 0x20 DUP3 ADD SWAP1 POP DUP2 DUP2 SUB PUSH1 0x0 DUP4 ADD MSTORE PUSH2 0x2214 DUP2 PUSH2 0x21D8 JUMP JUMPDEST SWAP1 POP SWAP2 SWAP1 POP JUMP JUMPDEST PUSH1 0x0 DUP2 SWAP1 POP DUP2 PUSH1 0x0 MSTORE PUSH1 0x20 PUSH1 0x0 KECCAK256 SWAP1 POP SWAP2 SWAP1 POP JUMP JUMPDEST PUSH1 0x0 PUSH1 0x20 PUSH1 0x1F DUP4 ADD DIV SWAP1 POP SWAP2 SWAP1 POP JUMP JUMPDEST PUSH1 0x0 DUP3 DUP3 SHL SWAP1 POP SWAP3 SWAP2 POP POP JUMP JUMPDEST PUSH1 0x0 PUSH1 0x8 DUP4 MUL PUSH2 0x227D PUSH32 0xFFFFFFFFFFFFFFFFFFFFFFFFFFFFFFFFFFFFFFFFFFFFFFFFFFFFFFFFFFFFFFFF DUP3 PUSH2 0x2240 JUMP JUMPDEST PUSH2 0x2287 DUP7 DUP4 PUSH2 0x2240 JUMP JUMPDEST SWAP6 POP DUP1 NOT DUP5 AND SWAP4 POP DUP1 DUP7 AND DUP5 OR SWAP3 POP POP POP SWAP4 SWAP3 POP POP POP JUMP JUMPDEST PUSH1 0x0 DUP2 SWAP1 POP SWAP2 SWAP1 POP JUMP JUMPDEST PUSH1 0x0 PUSH2 0x22C4 PUSH2 0x22BF PUSH2 0x22BA DUP5 PUSH2 0x17F4 JUMP JUMPDEST PUSH2 0x229F JUMP JUMPDEST PUSH2 0x17F4 JUMP JUMPDEST SWAP1 POP SWAP2 SWAP1 POP JUMP JUMPDEST PUSH1 0x0 DUP2 SWAP1 POP SWAP2 SWAP1 POP JUMP JUMPDEST PUSH2 0x22DE DUP4 PUSH2 0x22A9 JUMP JUMPDEST PUSH2 0x22F2 PUSH2 0x22EA DUP3 PUSH2 0x22CB JUMP JUMPDEST DUP5 DUP5 SLOAD PUSH2 0x224D JUMP JUMPDEST DUP3 SSTORE POP POP POP POP JUMP JUMPDEST PUSH1 0x0 SWAP1 JUMP JUMPDEST PUSH2 0x2307 PUSH2 0x22FA JUMP JUMPDEST PUSH2 0x2312 DUP2 DUP5 DUP5 PUSH2 0x22D5 JUMP JUMPDEST POP POP POP JUMP JUMPDEST JUMPDEST DUP2 DUP2 LT ISZERO PUSH2 0x2336 JUMPI PUSH2 0x232B PUSH1 0x0 DUP3 PUSH2 0x22FF JUMP JUMPDEST PUSH1 0x1 DUP2 ADD SWAP1 POP PUSH2 0x2318 JUMP JUMPDEST POP POP JUMP JUMPDEST PUSH1 0x1F DUP3 GT ISZERO PUSH2 0x237B JUMPI PUSH2 0x234C DUP2 PUSH2 0x221B JUMP JUMPDEST PUSH2 0x2355 DUP5 PUSH2 0x2230 JUMP JUMPDEST DUP2 ADD PUSH1 0x20 DUP6 LT ISZERO PUSH2 0x2364 JUMPI DUP2 SWAP1 POP JUMPDEST PUSH2 0x2378 PUSH2 0x2370 DUP6 PUSH2 0x2230 JUMP JUMPDEST DUP4 ADD DUP3 PUSH2 0x2317 JUMP JUMPDEST POP POP JUMPDEST POP POP POP JUMP JUMPDEST PUSH1 0x0 DUP3 DUP3 SHR SWAP1 POP SWAP3 SWAP2 POP POP JUMP JUMPDEST PUSH1 0x0 PUSH2 0x239E PUSH1 0x0 NOT DUP5 PUSH1 0x8 MUL PUSH2 0x2380 JUMP JUMPDEST NOT DUP1 DUP4 AND SWAP2 POP POP SWAP3 SWAP2 POP POP JUMP JUMPDEST PUSH1 0x0 PUSH2 0x23B7 DUP4 DUP4 PUSH2 0x238D JUMP JUMPDEST SWAP2 POP DUP3 PUSH1 0x2 MUL DUP3 OR SWAP1 POP SWAP3 SWAP2 POP POP JUMP JUMPDEST PUSH2 0x23D0 DUP3 PUSH2 0x18F9 JUMP JUMPDEST PUSH8 0xFFFFFFFFFFFFFFFF DUP2 GT ISZERO PUSH2 0x23E9 JUMPI PUSH2 0x23E8 PUSH2 0x1AC8 JUMP JUMPDEST JUMPDEST PUSH2 0x23F3 DUP3 SLOAD PUSH2 0x1FEB JUMP JUMPDEST PUSH2 0x23FE DUP3 DUP3 DUP6 PUSH2 0x233A JUMP JUMPDEST PUSH1 0x0 PUSH1 0x20 SWAP1 POP PUSH1 0x1F DUP4 GT PUSH1 0x1 DUP2 EQ PUSH2 0x2431 JUMPI PUSH1 0x0 DUP5 ISZERO PUSH2 0x241F JUMPI DUP3 DUP8 ADD MLOAD SWAP1 POP JUMPDEST PUSH2 0x2429 DUP6 DUP3 PUSH2 0x23AB JUMP JUMPDEST DUP7 SSTORE POP PUSH2 0x2491 JUMP JUMPDEST PUSH1 0x1F NOT DUP5 AND PUSH2 0x243F DUP7 PUSH2 0x221B JUMP JUMPDEST PUSH1 0x0 JUMPDEST DUP3 DUP2 LT ISZERO PUSH2 0x2467 JUMPI DUP5 DUP10 ADD MLOAD DUP3 SSTORE PUSH1 0x1 DUP3 ADD SWAP2 POP PUSH1 0x20 DUP6 ADD SWAP5 POP PUSH1 0x20 DUP2 ADD SWAP1 POP PUSH2 0x2442 JUMP JUMPDEST DUP7 DUP4 LT ISZERO PUSH2 0x2484 JUMPI DUP5 DUP10 ADD MLOAD PUSH2 0x2480 PUSH1 0x1F DUP10 AND DUP3 PUSH2 0x238D JUMP JUMPDEST DUP4 SSTORE POP JUMPDEST PUSH1 0x1 PUSH1 0x2 DUP9 MUL ADD DUP9 SSTORE POP POP POP JUMPDEST POP POP POP POP POP POP JUMP JUMPDEST PUSH1 0x0 PUSH1 0x40 DUP3 ADD SWAP1 POP DUP2 DUP2 SUB PUSH1 0x0 DUP4 ADD MSTORE PUSH2 0x24B3 DUP2 DUP6 PUSH2 0x1950 JUMP JUMPDEST SWAP1 POP PUSH2 0x24C2 PUSH1 0x20 DUP4 ADD DUP5 PUSH2 0x17CA JUMP JUMPDEST SWAP4 SWAP3 POP POP POP JUMP JUMPDEST PUSH1 0x0 PUSH2 0x24D4 DUP3 PUSH2 0x17F4 JUMP JUMPDEST SWAP2 POP PUSH32 0xFFFFFFFFFFFFFFFFFFFFFFFFFFFFFFFFFFFFFFFFFFFFFFFFFFFFFFFFFFFFFFFF DUP3 SUB PUSH2 0x2506 JUMPI PUSH2 0x2505 PUSH2 0x1D72 JUMP JUMPDEST JUMPDEST PUSH1 0x1 DUP3 ADD SWAP1 POP SWAP2 SWAP1 POP JUMP INVALID LOG2 PUSH5 0x6970667358 0x22 SLT KECCAK256 PUSH8 0x7778523F0756A249 PUSH12 0x6D5AE1FA13BE500693A494D1 PUSH28 0xA7CA712B2A7C74543364736F6C634300081300330000000000000000 "},"methodIdentifiers":{"VOTING_PERIOD()":"b1610d7e","admin()":"f851a440","delegateVote(address)":"b31e1d4d","delegates(address)":"587cde1e","getEffectiveVoter(address)":"08ee2d72","getReport(uint256)":"4e7f9b19","minimumStake()":"ec5ffac2","reportId()":"0ca70914","reportTimestamps(uint256)":"0bacd0c4","reports(uint256)":"c942adf7","resolveReport(uint256)":"6dfa5e61","setMinimumStake(uint256)":"233e9903","stakeTokens()":"ce46643b","submitReport(string,string,string)":"fb45a7c2","unstakeTokens(uint256)":"608e4dd0","voteOnReport(uint256,bool)":"115e647b","votingPower(address)":"c07473f6","withdrawFees()":"476343ee"}}}}}