{
  "_format": "hh-sol-artifact-1",
  "contractName": "DaoVoting",
  "sourceName": "contracts/DaoVoting.sol",
  "abi": [
    {
      "inputs": [],
      "stateMutability": "nonpayable",
      "type": "constructor"
    },
    {
      "anonymous": false,
      "inputs": [
        {
          "indexed": true,
          "internalType": "uint256",
          "name": "id",
          "type": "uint256"
        },
        {
          "indexed": false,
          "internalType": "bool",
          "name": "approved",
          "type": "bool"
        }
      ],
      "name": "ReportResolved",
      "type": "event"
    },
    {
      "anonymous": false,
      "inputs": [
        {
          "indexed": true,
          "internalType": "uint256",
          "name": "id",
          "type": "uint256"
        },
        {
          "indexed": false,
          "internalType": "string",
          "name": "description",
          "type": "string"
        },
        {
          "indexed": false,
          "internalType": "address",
          "name": "submitter",
          "type": "address"
        }
      ],
      "name": "ReportSubmitted",
      "type": "event"
    },
    {
      "anonymous": false,
      "inputs": [
        {
          "indexed": true,
          "internalType": "address",
          "name": "user",
          "type": "address"
        },
        {
          "indexed": false,
          "internalType": "uint256",
          "name": "amount",
          "type": "uint256"
        }
      ],
      "name": "StakeChanged",
      "type": "event"
    },
    {
      "anonymous": false,
      "inputs": [
        {
          "indexed": true,
          "internalType": "address",
          "name": "from",
          "type": "address"
        },
        {
          "indexed": true,
          "internalType": "address",
          "name": "to",
          "type": "address"
        }
      ],
      "name": "VoteDelegated",
      "type": "event"
    },
    {
      "anonymous": false,
      "inputs": [
        {
          "indexed": true,
          "internalType": "uint256",
          "name": "id",
          "type": "uint256"
        },
        {
          "indexed": false,
          "internalType": "address",
          "name": "voter",
          "type": "address"
        },
        {
          "indexed": false,
          "internalType": "bool",
          "name": "voteYes",
          "type": "bool"
        },
        {
          "indexed": false,
          "internalType": "uint256",
          "name": "weight",
          "type": "uint256"
        }
      ],
      "name": "Voted",
      "type": "event"
    },
    {
      "inputs": [],
      "name": "VOTING_PERIOD",
      "outputs": [
        {
          "internalType": "uint256",
          "name": "",
          "type": "uint256"
        }
      ],
      "stateMutability": "view",
      "type": "function"
    },
    {
      "inputs": [],
      "name": "admin",
      "outputs": [
        {
          "internalType": "address",
          "name": "",
          "type": "address"
        }
      ],
      "stateMutability": "view",
      "type": "function"
    },
    {
      "inputs": [
        {
          "internalType": "address",
          "name": "to",
          "type": "address"
        }
      ],
      "name": "delegateVote",
      "outputs": [],
      "stateMutability": "nonpayable",
      "type": "function"
    },
    {
      "inputs": [
        {
          "internalType": "address",
          "name": "",
          "type": "address"
        }
      ],
      "name": "delegates",
      "outputs": [
        {
          "internalType": "address",
          "name": "",
          "type": "address"
        }
      ],
      "stateMutability": "view",
      "type": "function"
    },
    {
      "inputs": [
        {
          "internalType": "address",
          "name": "voter",
          "type": "address"
        }
      ],
      "name": "getEffectiveVoter",
      "outputs": [
        {
          "internalType": "address",
          "name": "",
          "type": "address"
        }
      ],
      "stateMutability": "view",
      "type": "function"
    },
    {
      "inputs": [
        {
          "internalType": "uint256",
          "name": "_id",
          "type": "uint256"
        }
      ],
      "name": "getReport",
      "outputs": [
        {
          "internalType": "string",
          "name": "description",
          "type": "string"
        },
        {
          "internalType": "string",
          "name": "harasserName",
          "type": "string"
        },
        {
          "internalType": "string",
          "name": "evidenceCID",
          "type": "string"
        },
        {
          "internalType": "uint256",
          "name": "yesVotes",
          "type": "uint256"
        },
        {
          "internalType": "uint256",
          "name": "noVotes",
          "type": "uint256"
        },
        {
          "internalType": "address",
          "name": "submitter",
          "type": "address"
        },
        {
          "internalType": "bool",
          "name": "resolved",
          "type": "bool"
        },
        {
          "internalType": "bool",
          "name": "canVote",
          "type": "bool"
        },
        {
          "internalType": "bool",
          "name": "isVotingOpen",
          "type": "bool"
        }
      ],
      "stateMutability": "view",
      "type": "function"
    },
    {
      "inputs": [],
      "name": "minimumStake",
      "outputs": [
        {
          "internalType": "uint256",
          "name": "",
          "type": "uint256"
        }
      ],
      "stateMutability": "view",
      "type": "function"
    },
    {
      "inputs": [],
      "name": "reportId",
      "outputs": [
        {
          "internalType": "uint256",
          "name": "",
          "type": "uint256"
        }
      ],
      "stateMutability": "view",
      "type": "function"
    },
    {
      "inputs": [
        {
          "internalType": "uint256",
          "name": "",
          "type": "uint256"
        }
      ],
      "name": "reportTimestamps",
      "outputs": [
        {
          "internalType": "uint256",
          "name": "",
          "type": "uint256"
        }
      ],
      "stateMutability": "view",
      "type": "function"
    },
    {
      "inputs": [
        {
          "internalType": "uint256",
          "name": "",
          "type": "uint256"
        }
      ],
      "name": "reports",
      "outputs": [
        {
          "internalType": "string",
          "name": "description",
          "type": "string"
        },
        {
          "internalType": "string",
          "name": "harasserName",
          "type": "string"
        },
        {
          "internalType": "string",
          "name": "evidenceCID",
          "type": "string"
        },
        {
          "internalType": "uint256",
          "name": "yesVotes",
          "type": "uint256"
        },
        {
          "internalType": "uint256",
          "name": "noVotes",
          "type": "uint256"
        },
        {
          "internalType": "address",
          "name": "submitter",
          "type": "address"
        },
        {
          "internalType": "bool",
          "name": "resolved",
          "type": "bool"
        }
      ],
      "stateMutability": "view",
      "type": "function"
    },
    {
      "inputs": [
        {
          "internalType": "uint256",
          "name": "_id",
          "type": "uint256"
        }
      ],
      "name": "resolveReport",
      "outputs": [],
      "stateMutability": "nonpayable",
      "type": "function"
    },
    {
      "inputs": [
        {
          "internalType": "uint256",
          "name": "newStake",
          "type": "uint256"
        }
      ],
      "name": "setMinimumStake",
      "outputs": [],
      "stateMutability": "nonpayable",
      "type": "function"
    },
    {
      "inputs": [],
      "name": "stakeTokens",
      "outputs": [],
      "stateMutability": "payable",
      "type": "function"
    },
    {
      "inputs": [
        {
          "internalType": "string",
          "name": "_description",
          "type": "string"
        },
        {
          "internalType": "string",
          "name": "_harasserName",
          "type": "string"
        },
        {
          "internalType": "string",
          "name": "_evidenceCID",
          "type": "string"
        }
      ],
      "name": "submitReport",
      "outputs": [],
      "stateMutability": "nonpayable",
      "type": "function"
    },
    {
      "inputs": [
        {
          "internalType": "uint256",
          "name": "amount",
          "type": "uint256"
        }
      ],
      "name": "unstakeTokens",
      "outputs": [],
      "stateMutability": "nonpayable",
      "type": "function"
    },
    {
      "inputs": [
        {
          "internalType": "uint256",
          "name": "_id",
          "type": "uint256"
        },
        {
          "internalType": "bool",
          "name": "_voteYes",
          "type": "bool"
        }
      ],
      "name": "voteOnReport",
      "outputs": [],
      "stateMutability": "nonpayable",
      "type": "function"
    },
    {
      "inputs": [
        {
          "internalType": "address",
          "name": "",
          "type": "address"
        }
      ],
      "name": "votingPower",
      "outputs": [
        {
          "internalType": "uint256",
          "name": "",
          "type": "uint256"
        }
      ],
      "stateMutability": "view",
      "type": "function"
    },
    {
      "inputs": [],
      "name": "withdrawFees",
      "outputs": [],
      "stateMutability": "nonpayable",
      "type": "function"
    }
  ],
  "bytecode": "0x608060405267016345785d8a000060065534801561001c57600080fd5b50336000806101000a81548173ffffffffffffffffffffffffffffffffffffffff021916908373ffffffffffffffffffffffffffffffffffffffff1602179055506125478061006c6000396000f3fe6080604052600436106101095760003560e01c80636dfa5e6111610095578063c942adf711610064578063c942adf714610381578063ce46643b146103c4578063ec5ffac2146103ce578063f851a440146103f9578063fb45a7c21461042457610109565b80636dfa5e61146102c7578063b1610d7e146102f0578063b31e1d4d1461031b578063c07473f61461034457610109565b8063233e9903116100dc578063233e9903146101dc578063476343ee146102055780634e7f9b191461021c578063587cde1e14610261578063608e4dd01461029e57610109565b806308ee2d721461010e5780630bacd0c41461014b5780630ca7091414610188578063115e647b146101b3575b600080fd5b34801561011a57600080fd5b506101356004803603810190610130919061179d565b61044d565b60405161014291906117d9565b60405180910390f35b34801561015757600080fd5b50610172600480360381019061016d919061182a565b61054f565b60405161017f9190611866565b60405180910390f35b34801561019457600080fd5b5061019d610567565b6040516101aa9190611866565b60405180910390f35b3480156101bf57600080fd5b506101da60048036038101906101d591906118b9565b61056d565b005b3480156101e857600080fd5b5061020360048036038101906101fe919061182a565b61090f565b005b34801561021157600080fd5b5061021a6109a7565b005b34801561022857600080fd5b50610243600480360381019061023e919061182a565b610a9e565b60405161025899989796959493929190611998565b60405180910390f35b34801561026d57600080fd5b506102886004803603810190610283919061179d565b610dc1565b60405161029591906117d9565b60405180910390f35b3480156102aa57600080fd5b506102c560048036038101906102c0919061182a565b610df4565b005b3480156102d357600080fd5b506102ee60048036038101906102e9919061182a565b610fa3565b005b3480156102fc57600080fd5b50610305611165565b6040516103129190611866565b60405180910390f35b34801561032757600080fd5b50610342600480360381019061033d919061179d565b61116b565b005b34801561035057600080fd5b5061036b6004803603810190610366919061179d565b6112b4565b6040516103789190611866565b60405180910390f35b34801561038d57600080fd5b506103a860048036038101906103a3919061182a565b6112cc565b6040516103bb9796959493929190611a3a565b60405180910390f35b6103cc6114d3565b005b3480156103da57600080fd5b506103e36115fb565b6040516103f09190611866565b60405180910390f35b34801561040557600080fd5b5061040e611601565b60405161041b91906117d9565b60405180910390f35b34801561043057600080fd5b5061044b60048036038101906104469190611bf3565b611625565b005b60008073ffffffffffffffffffffffffffffffffffffffff16600460008473ffffffffffffffffffffffffffffffffffffffff1673ffffffffffffffffffffffffffffffffffffffff16815260200190815260200160002060009054906101000a900473ffffffffffffffffffffffffffffffffffffffff1673ffffffffffffffffffffffffffffffffffffffff16036104e75781610548565b600460008373ffffffffffffffffffffffffffffffffffffffff1673ffffffffffffffffffffffffffffffffffffffff16815260200190815260200160002060009054906101000a900473ffffffffffffffffffffffffffffffffffffffff165b9050919050565b60036020528060005260406000206000915090505481565b60015481565b6000600260008481526020019081526020016000209050600073ffffffffffffffffffffffffffffffffffffffff168160050160009054906101000a900473ffffffffffffffffffffffffffffffffffffffff1673ffffffffffffffffffffffffffffffffffffffff1603610617576040517f08c379a000000000000000000000000000000000000000000000000000000000815260040161060e90611ce6565b60405180910390fd5b8060050160149054906101000a900460ff1615610669576040517f08c379a000000000000000000000000000000000000000000000000000000000815260040161066090611d52565b60405180910390fd5b610e10600360008581526020019081526020016000205461068a9190611da1565b4211156106cc576040517f08c379a00000000000000000000000000000000000000000000000000000000081526004016106c390611e21565b60405180910390fd5b60006106d73361044d565b90508160060160008273ffffffffffffffffffffffffffffffffffffffff1673ffffffffffffffffffffffffffffffffffffffff16815260200190815260200160002060009054906101000a900460ff1615610768576040517f08c379a000000000000000000000000000000000000000000000000000000000815260040161075f90611e8d565b60405180910390fd5b600654600560008373ffffffffffffffffffffffffffffffffffffffff1673ffffffffffffffffffffffffffffffffffffffff1681526020019081526020016000205410156107ec576040517f08c379a00000000000000000000000000000000000000000000000000000000081526004016107e390611ef9565b60405180910390fd5b6000600560008373ffffffffffffffffffffffffffffffffffffffff1673ffffffffffffffffffffffffffffffffffffffff1681526020019081526020016000205490508315610856578083600301600082825461084a9190611da1565b92505081905550610872565b8083600401600082825461086a9190611da1565b925050819055505b60018360060160008473ffffffffffffffffffffffffffffffffffffffff1673ffffffffffffffffffffffffffffffffffffffff16815260200190815260200160002060006101000a81548160ff021916908315150217905550847f7c2de587c00d75474a0c6c6fa96fd3b45dc974cd4e8a75f712bb84c950dce1b583868460405161090093929190611f19565b60405180910390a25050505050565b60008054906101000a900473ffffffffffffffffffffffffffffffffffffffff1673ffffffffffffffffffffffffffffffffffffffff163373ffffffffffffffffffffffffffffffffffffffff161461099d576040517f08c379a000000000000000000000000000000000000000000000000000000000815260040161099490611f9c565b60405180910390fd5b8060068190555050565b60008054906101000a900473ffffffffffffffffffffffffffffffffffffffff1673ffffffffffffffffffffffffffffffffffffffff163373ffffffffffffffffffffffffffffffffffffffff1614610a35576040517f08c379a0000000000000000000000000000000000000000000000000000000008152600401610a2c90611f9c565b60405180910390fd5b60008054906101000a900473ffffffffffffffffffffffffffffffffffffffff1673ffffffffffffffffffffffffffffffffffffffff166108fc479081150290604051600060405180830381858888f19350505050158015610a9b573d6000803e3d6000fd5b50565b60608060606000806000806000806000600260008c815260200190815260200160002090506000610ace3361044d565b9050610e10600360008e815260200190815260200160002054610af19190611da1565b4211158015610b0f57508160050160149054906101000a900460ff16155b9250816000018260010183600201846003015485600401548660050160009054906101000a900473ffffffffffffffffffffffffffffffffffffffff168760050160149054906101000a900460ff168860060160008973ffffffffffffffffffffffffffffffffffffffff1673ffffffffffffffffffffffffffffffffffffffff16815260200190815260200160002060009054906101000a900460ff16158015610bfb5750600654600560008a73ffffffffffffffffffffffffffffffffffffffff1673ffffffffffffffffffffffffffffffffffffffff1681526020019081526020016000205410155b8a888054610c0890611feb565b80601f0160208091040260200160405190810160405280929190818152602001828054610c3490611feb565b8015610c815780601f10610c5657610100808354040283529160200191610c81565b820191906000526020600020905b815481529060010190602001808311610c6457829003601f168201915b50505050509850878054610c9490611feb565b80601f0160208091040260200160405190810160405280929190818152602001828054610cc090611feb565b8015610d0d5780601f10610ce257610100808354040283529160200191610d0d565b820191906000526020600020905b815481529060010190602001808311610cf057829003601f168201915b50505050509750868054610d2090611feb565b80601f0160208091040260200160405190810160405280929190818152602001828054610d4c90611feb565b8015610d995780601f10610d6e57610100808354040283529160200191610d99565b820191906000526020600020905b815481529060010190602001808311610d7c57829003601f168201915b505050505096509a509a509a509a509a509a509a509a509a5050509193959799909294969850565b60046020528060005260406000206000915054906101000a900473ffffffffffffffffffffffffffffffffffffffff1681565b80600560003373ffffffffffffffffffffffffffffffffffffffff1673ffffffffffffffffffffffffffffffffffffffff168152602001908152602001600020541015610e76576040517f08c379a0000000000000000000000000000000000000000000000000000000008152600401610e6d90611ef9565b60405180910390fd5b80600560003373ffffffffffffffffffffffffffffffffffffffff1673ffffffffffffffffffffffffffffffffffffffff1681526020019081526020016000206000828254610ec5919061201c565b925050819055503373ffffffffffffffffffffffffffffffffffffffff166108fc829081150290604051600060405180830381858888f19350505050158015610f12573d6000803e3d6000fd5b503373ffffffffffffffffffffffffffffffffffffffff167f39df0e5286a3ef2f42a0bf52f32cfe2c58e5b0405f47fe512f2c2439e4cfe204600560003373ffffffffffffffffffffffffffffffffffffffff1673ffffffffffffffffffffffffffffffffffffffff16815260200190815260200160002054604051610f989190611866565b60405180910390a250565b60008054906101000a900473ffffffffffffffffffffffffffffffffffffffff1673ffffffffffffffffffffffffffffffffffffffff163373ffffffffffffffffffffffffffffffffffffffff1614611031576040517f08c379a000000000000000000000000000000000000000000000000000000000815260040161102890611f9c565b60405180910390fd5b60006002600083815260200190815260200160002090508060050160149054906101000a900460ff161561109a576040517f08c379a00000000000000000000000000000000000000000000000000000000081526004016110919061209c565b60405180910390fd5b610e1060036000848152602001908152602001600020546110bb9190611da1565b42116110fc576040517f08c379a00000000000000000000000000000000000000000000000000000000081526004016110f390612108565b60405180910390fd5b60018160050160146101000a81548160ff021916908315150217905550600081600401548260030154119050827fc376607d08aab8e39afddbd149fcbefac7c69dcb371a8795626693e5a5a5d10a826040516111589190612128565b60405180910390a2505050565b610e1081565b3373ffffffffffffffffffffffffffffffffffffffff168173ffffffffffffffffffffffffffffffffffffffff16036111d9576040517f08c379a00000000000000000000000000000000000000000000000000000000081526004016111d09061218f565b60405180910390fd5b80600460003373ffffffffffffffffffffffffffffffffffffffff1673ffffffffffffffffffffffffffffffffffffffff16815260200190815260200160002060006101000a81548173ffffffffffffffffffffffffffffffffffffffff021916908373ffffffffffffffffffffffffffffffffffffffff1602179055508073ffffffffffffffffffffffffffffffffffffffff163373ffffffffffffffffffffffffffffffffffffffff167fa0ff2fa6909fe4ddd94349fc9d8e2932f3dfe666216f3cc2aa3a72f5a03b655e60405160405180910390a350565b60056020528060005260406000206000915090505481565b60026020528060005260406000206000915090508060000180546112ef90611feb565b80601f016020809104026020016040519081016040528092919081815260200182805461131b90611feb565b80156113685780601f1061133d57610100808354040283529160200191611368565b820191906000526020600020905b81548152906001019060200180831161134b57829003601f168201915b50505050509080600101805461137d90611feb565b80601f01602080910402602001604051908101604052809291908181526020018280546113a990611feb565b80156113f65780601f106113cb576101008083540402835291602001916113f6565b820191906000526020600020905b8154815290600101906020018083116113d957829003601f168201915b50505050509080600201805461140b90611feb565b80601f016020809104026020016040519081016040528092919081815260200182805461143790611feb565b80156114845780601f1061145957610100808354040283529160200191611484565b820191906000526020600020905b81548152906001019060200180831161146757829003601f168201915b5050505050908060030154908060040154908060050160009054906101000a900473ffffffffffffffffffffffffffffffffffffffff16908060050160149054906101000a900460ff16905087565b60003411611516576040517f08c379a000000000000000000000000000000000000000000000000000000000815260040161150d906121fb565b60405180910390fd5b34600560003373ffffffffffffffffffffffffffffffffffffffff1673ffffffffffffffffffffffffffffffffffffffff16815260200190815260200160002060008282546115659190611da1565b925050819055503373ffffffffffffffffffffffffffffffffffffffff167f39df0e5286a3ef2f42a0bf52f32cfe2c58e5b0405f47fe512f2c2439e4cfe204600560003373ffffffffffffffffffffffffffffffffffffffff1673ffffffffffffffffffffffffffffffffffffffff168152602001908152602001600020546040516115f19190611866565b60405180910390a2565b60065481565b60008054906101000a900473ffffffffffffffffffffffffffffffffffffffff1681565b600060026000600154815260200190815260200160002090508381600001908161164f91906123c7565b508281600101908161166191906123c7565b508181600201908161167391906123c7565b50338160050160006101000a81548173ffffffffffffffffffffffffffffffffffffffff021916908373ffffffffffffffffffffffffffffffffffffffff16021790555042600360006001548152602001908152602001600020819055506001547ff41ea29a335564573dd96630877e28e7529614e42115e1667bb721cb1a8bd0b08533604051611705929190612499565b60405180910390a260016000815480929190611720906124c9565b919050555050505050565b6000604051905090565b600080fd5b600080fd5b600073ffffffffffffffffffffffffffffffffffffffff82169050919050565b600061176a8261173f565b9050919050565b61177a8161175f565b811461178557600080fd5b50565b60008135905061179781611771565b92915050565b6000602082840312156117b3576117b2611735565b5b60006117c184828501611788565b91505092915050565b6117d38161175f565b82525050565b60006020820190506117ee60008301846117ca565b92915050565b6000819050919050565b611807816117f4565b811461181257600080fd5b50565b600081359050611824816117fe565b92915050565b6000602082840312156118405761183f611735565b5b600061184e84828501611815565b91505092915050565b611860816117f4565b82525050565b600060208201905061187b6000830184611857565b92915050565b60008115159050919050565b61189681611881565b81146118a157600080fd5b50565b6000813590506118b38161188d565b92915050565b600080604083850312156118d0576118cf611735565b5b60006118de85828601611815565b92505060206118ef858286016118a4565b9150509250929050565b600081519050919050565b600082825260208201905092915050565b60005b83811015611933578082015181840152602081019050611918565b60008484015250505050565b6000601f19601f8301169050919050565b600061195b826118f9565b6119658185611904565b9350611975818560208601611915565b61197e8161193f565b840191505092915050565b61199281611881565b82525050565b60006101208201905081810360008301526119b3818c611950565b905081810360208301526119c7818b611950565b905081810360408301526119db818a611950565b90506119ea6060830189611857565b6119f76080830188611857565b611a0460a08301876117ca565b611a1160c0830186611989565b611a1e60e0830185611989565b611a2c610100830184611989565b9a9950505050505050505050565b600060e0820190508181036000830152611a54818a611950565b90508181036020830152611a688189611950565b90508181036040830152611a7c8188611950565b9050611a8b6060830187611857565b611a986080830186611857565b611aa560a08301856117ca565b611ab260c0830184611989565b98975050505050505050565b600080fd5b600080fd5b7f4e487b7100000000000000000000000000000000000000000000000000000000600052604160045260246000fd5b611b008261193f565b810181811067ffffffffffffffff82111715611b1f57611b1e611ac8565b5b80604052505050565b6000611b3261172b565b9050611b3e8282611af7565b919050565b600067ffffffffffffffff821115611b5e57611b5d611ac8565b5b611b678261193f565b9050602081019050919050565b82818337600083830152505050565b6000611b96611b9184611b43565b611b28565b905082815260208101848484011115611bb257611bb1611ac3565b5b611bbd848285611b74565b509392505050565b600082601f830112611bda57611bd9611abe565b5b8135611bea848260208601611b83565b91505092915050565b600080600060608486031215611c0c57611c0b611735565b5b600084013567ffffffffffffffff811115611c2a57611c2961173a565b5b611c3686828701611bc5565b935050602084013567ffffffffffffffff811115611c5757611c5661173a565b5b611c6386828701611bc5565b925050604084013567ffffffffffffffff811115611c8457611c8361173a565b5b611c9086828701611bc5565b9150509250925092565b7f5265706f727420646f65736e2774206578697374000000000000000000000000600082015250565b6000611cd0601483611904565b9150611cdb82611c9a565b602082019050919050565b60006020820190508181036000830152611cff81611cc3565b9050919050565b7f566f74696e6720636c6f73656400000000000000000000000000000000000000600082015250565b6000611d3c600d83611904565b9150611d4782611d06565b602082019050919050565b60006020820190508181036000830152611d6b81611d2f565b9050919050565b7f4e487b7100000000000000000000000000000000000000000000000000000000600052601160045260246000fd5b6000611dac826117f4565b9150611db7836117f4565b9250828201905080821115611dcf57611dce611d72565b5b92915050565b7f566f74696e6720706572696f6420656e64656400000000000000000000000000600082015250565b6000611e0b601383611904565b9150611e1682611dd5565b602082019050919050565b60006020820190508181036000830152611e3a81611dfe565b9050919050565b7f416c726561647920766f74656400000000000000000000000000000000000000600082015250565b6000611e77600d83611904565b9150611e8282611e41565b602082019050919050565b60006020820190508181036000830152611ea681611e6a565b9050919050565b7f496e73756666696369656e74207374616b650000000000000000000000000000600082015250565b6000611ee3601283611904565b9150611eee82611ead565b602082019050919050565b60006020820190508181036000830152611f1281611ed6565b9050919050565b6000606082019050611f2e60008301866117ca565b611f3b6020830185611989565b611f486040830184611857565b949350505050565b7f4f6e6c792061646d696e00000000000000000000000000000000000000000000600082015250565b6000611f86600a83611904565b9150611f9182611f50565b602082019050919050565b60006020820190508181036000830152611fb581611f79565b9050919050565b7f4e487b7100000000000000000000000000000000000000000000000000000000600052602260045260246000fd5b6000600282049050600182168061200357607f821691505b60208210810361201657612015611fbc565b5b50919050565b6000612027826117f4565b9150612032836117f4565b925082820390508181111561204a57612049611d72565b5b92915050565b7f416c7265616479207265736f6c76656400000000000000000000000000000000600082015250565b6000612086601083611904565b915061209182612050565b602082019050919050565b600060208201905081810360008301526120b581612079565b9050919050565b7f566f74696e67207374696c6c206f70656e000000000000000000000000000000600082015250565b60006120f2601183611904565b91506120fd826120bc565b602082019050919050565b60006020820190508181036000830152612121816120e5565b9050919050565b600060208201905061213d6000830184611989565b92915050565b7f43616e6e6f742064656c656761746520746f2073656c66000000000000000000600082015250565b6000612179601783611904565b915061218482612143565b602082019050919050565b600060208201905081810360008301526121a88161216c565b9050919050565b7f4d7573742073656e642045544800000000000000000000000000000000000000600082015250565b60006121e5600d83611904565b91506121f0826121af565b602082019050919050565b60006020820190508181036000830152612214816121d8565b9050919050565b60008190508160005260206000209050919050565b60006020601f8301049050919050565b600082821b905092915050565b60006008830261227d7fffffffffffffffffffffffffffffffffffffffffffffffffffffffffffffffff82612240565b6122878683612240565b95508019841693508086168417925050509392505050565b6000819050919050565b60006122c46122bf6122ba846117f4565b61229f565b6117f4565b9050919050565b6000819050919050565b6122de836122a9565b6122f26122ea826122cb565b84845461224d565b825550505050565b600090565b6123076122fa565b6123128184846122d5565b505050565b5b818110156123365761232b6000826122ff565b600181019050612318565b5050565b601f82111561237b5761234c8161221b565b61235584612230565b81016020851015612364578190505b61237861237085612230565b830182612317565b50505b505050565b600082821c905092915050565b600061239e60001984600802612380565b1980831691505092915050565b60006123b7838361238d565b9150826002028217905092915050565b6123d0826118f9565b67ffffffffffffffff8111156123e9576123e8611ac8565b5b6123f38254611feb565b6123fe82828561233a565b600060209050601f831160018114612431576000841561241f578287015190505b61242985826123ab565b865550612491565b601f19841661243f8661221b565b60005b8281101561246757848901518255600182019150602085019450602081019050612442565b868310156124845784890151612480601f89168261238d565b8355505b6001600288020188555050505b505050505050565b600060408201905081810360008301526124b38185611950565b90506124c260208301846117ca565b9392505050565b60006124d4826117f4565b91507fffffffffffffffffffffffffffffffffffffffffffffffffffffffffffffffff820361250657612505611d72565b5b60018201905091905056fea2646970667358221220677778523f0756a2496b6d5ae1fa13be500693a494d17ba7ca712b2a7c74543364736f6c63430008130033",
  "linkReferences": {},
  "deployedLinkReferences": {}
}