{
  "_format": "hh-sol-artifact-1",
  "contractName": "DaoVoting",
  "sourceName": "contracts/DaoVoting.sol",
  "abi": [
    {
      "inputs": [],
      "stateMutability": "nonpayable",
      "type": "constructor"
    },
    {
      "anonymous": false,
      "inputs": [
        {
          "indexed": true,
          "internalType": "uint256",
          "name": "id",
          "type": "uint256"
        },
        {
          "indexed": false,
          "internalType": "bool",
          "name": "approved",
          "type": "bool"
        }
      ],
      "name": "ReportResolved",
      "type": "event"
    },
    {
      "anonymous": false,
      "inputs": [
        {
          "indexed": true,
          "internalType": "uint256",
          "name": "id",
          "type": "uint256"
        },
        {
          "indexed": false,
          "internalType": "string",
          "name": "description",
          "type": "string"
        },
        {
          "indexed": false,
          "internalType": "address",
          "name": "submitter",
          "type": "address"
        }
      ],
      "name": "ReportSubmitted",
      "type": "event"
    },
    {
      "anonymous": false,
      "inputs": [
        {
          "indexed": true,
          "internalType": "address",
          "name": "user",
          "type": "address"
        },
        {
          "indexed": false,
          "internalType": "uint256",
          "name": "amount",
          "type": "uint256"
        }
      ],
      "name": "StakeChanged",
      "type": "event"
    },
    {
      "anonymous": false,
      "inputs": [
        {
          "indexed": true,
          "internalType": "address",
          "name": "from",
          "type": "address"
        },
        {
          "indexed": true,
          "internalType": "address",
          "name": "to",
          "type": "address"
        }
      ],
      "name": "VoteDelegated",
      "type": "event"
    },
    {
      "anonymous": false,
      "inputs": [
        {
          "indexed": true,
          "internalType": "uint256",
          "name": "id",
          "type": "uint256"
        },
        {
          "indexed": false,
          "internalType": "address",
          "name": "voter",
          "type": "address"
        },
        {
          "indexed": false,
          "internalType": "bool",
          "name": "voteYes",
          "type": "bool"
        },
        {
          "indexed": false,
          "internalType": "uint256",
          "name": "weight",
          "type": "uint256"
        }
      ],
      "name": "Voted",
      "type": "event"
    },
    {
      "inputs": [],
      "name": "VOTING_PERIOD",
      "outputs": [
        {
          "internalType": "uint256",
          "name": "",
          "type": "uint256"
        }
      ],
      "stateMutability": "view",
      "type": "function"
    },
    {
      "inputs": [],
      "name": "admin",
      "outputs": [
        {
          "internalType": "address",
          "name": "",
          "type": "address"
        }
      ],
      "stateMutability": "view",
      "type": "function"
    },
    {
      "inputs": [
        {
          "internalType": "address",
          "name": "to",
          "type": "address"
        }
      ],
      "name": "delegateVote",
      "outputs": [],
      "stateMutability": "nonpayable",
      "type": "function"
    },
    {
      "inputs": [
        {
          "internalType": "address",
          "name": "",
          "type": "address"
        }
      ],
      "name": "delegates",
      "outputs": [
        {
          "internalType": "address",
          "name": "",
          "type": "address"
        }
      ],
      "stateMutability": "view",
      "type": "function"
    },
    {
      "inputs": [
        {
          "internalType": "address",
          "name": "voter",
          "type": "address"
        }
      ],
      "name": "getEffectiveVoter",
      "outputs": [
        {
          "internalType": "address",
          "name": "",
          "type": "address"
        }
      ],
      "stateMutability": "view",
      "type": "function"
    },
    {
      "inputs": [
        {
          "internalType": "uint256",
          "name": "_id",
          "type": "uint256"
        }
      ],
      "name": "getReport",
      "outputs": [
        {
          "internalType": "string",
          "name": "description",
          "type": "string"
        },
        {
          "internalType": "string",
          "name": "harasserName",
          "type": "string"
        },
        {
          "internalType": "string",
          "name": "evidenceCID",
          "type": "string"
        },
        {
          "internalType": "uint256",
          "name": "yesVotes",
          "type": "uint256"
        },
        {
          "internalType": "uint256",
          "name": "noVotes",
          "type": "uint256"
        },
        {
          "internalType": "address",
          "name": "submitter",
          "type": "address"
        },
        {
          "internalType": "bool",
          "name": "resolved",
          "type": "bool"
        },
        {
          "internalType": "bool",
          "name": "canVote",
          "type": "bool"
        },
        {
          "internalType": "bool",
          "name": "isVotingOpen",
          "type": "bool"
        }
      ],
      "stateMutability": "view",
      "type": "function"
    },
    {
      "inputs": [],
      "name": "minimumStake",
      "outputs": [
        {
          "internalType": "uint256",
          "name": "",
          "type": "uint256"
        }
      ],
      "stateMutability": "view",
      "type": "function"
    },
    {
      "inputs": [],
      "name": "reportId",
      "outputs": [
        {
          "internalType": "uint256",
          "name": "",
          "type": "uint256"
        }
      ],
      "stateMutability": "view",
      "type": "function"
    },
    {
      "inputs": [
        {
          "internalType": "uint256",
          "name": "",
          "type": "uint256"
        }
      ],
      "name": "reportTimestamps",
      "outputs": [
        {
          "internalType": "uint256",
          "name": "",
          "type": "uint256"
        }
      ],
      "stateMutability": "view",
      "type": "function"
    },
    {
      "inputs": [
        {
          "internalType": "uint256",
          "name": "",
          "type": "uint256"
        }
      ],
      "name": "reports",
      "outputs": [
        {
          "internalType": "string",
          "name": "description",
          "type": "string"
        },
        {
          "internalType": "string",
          "name": "harasserName",
          "type": "string"
        },
        {
          "internalType": "string",
          "name": "evidenceCID",
          "type": "string"
        },
        {
          "internalType": "uint256",
          "name": "yesVotes",
          "type": "uint256"
        },
        {
          "internalType": "uint256",
          "name": "noVotes",
          "type": "uint256"
        },
        {
          "internalType": "address",
          "name": "submitter",
          "type": "address"
        },
        {
          "internalType": "bool",
          "name": "resolved",
          "type": "bool"
        }
      ],
      "stateMutability": "view",
      "type": "function"
    },
    {
      "inputs": [
        {
          "internalType": "uint256",
          "name": "_id",
          "type": "uint256"
        }
      ],
      "name": "resolveReport",
      "outputs": [],
      "stateMutability": "nonpayable",
      "type": "function"
    },
    {
      "inputs": [
        {
          "internalType": "uint256",
          "name": "newStake",
          "type": "uint256"
        }
      ],
      "name": "setMinimumStake",
      "outputs": [],
      "stateMutability": "nonpayable",
      "type": "function"
    },
    {
      "inputs": [],
      "name": "stakeTokens",
      "outputs": [],
      "stateMutability": "payable",
      "type": "function"
    },
    {
      "inputs": [
        {
          "internalType": "string",
          "name": "_description",
          "type": "string"
        },
        {
          "internalType": "string",
          "name": "_harasserName",
          "type": "string"
        },
        {
          "internalType": "string",
          "name": "_evidenceCID",
          "type": "string"
        }
      ],
      "name": "submitReport",
      "outputs": [],
      "stateMutability": "nonpayable",
      "type": "function"
    },
    {
      "inputs": [
        {
          "internalType": "uint256",
          "name": "amount",
          "type": "uint256"
        }
      ],
      "name": "unstakeTokens",
      "outputs": [],
      "stateMutability": "nonpayable",
      "type": "function"
    },
    {
      "inputs": [
        {
          "internalType": "uint256",
          "name": "_id",
          "type": "uint256"
        },
        {
          "internalType": "bool",
          "name": "_voteYes",
          "type": "bool"
        }
      ],
      "name": "voteOnReport",
      "outputs": [],
      "stateMutability": "nonpayable",
      "type": "function"
    },
    {
      "inputs": [
        {
          "internalType": "address",
          "name": "",
          "type": "address"
        }
      ],
      "name": "votingPower",
      "outputs": [
        {
          "internalType": "uint256",
          "name": "",
          "type": "uint256"
        }
      ],
      "stateMutability": "view",
      "type": "function"
    },
    {
      "inputs": [],
      "name": "withdrawFees",
      "outputs": [],
      "stateMutability": "nonpayable",
      "type": "function"
    }
  ],
  "bytecode": "0x608060405267016345785d8a000060065534801561001c57600080fd5b50336000806101000a81548173ffffffffffffffffffffffffffffffffffffffff021916908373ffffffffffffffffffffffffffffffffffffffff16021790555061254b8061006c6000396000f3fe6080604052600436106101095760003560e01c80636dfa5e6111610095578063c942adf711610064578063c942adf714610381578063ce46643b146103c4578063ec5ffac2146103ce578063f851a440146103f9578063fb45a7c21461042457610109565b80636dfa5e61146102c7578063b1610d7e146102f0578063b31e1d4d1461031b578063c07473f61461034457610109565b8063233e9903116100dc578063233e9903146101dc578063476343ee146102055780634e7f9b191461021c578063587cde1e14610261578063608e4dd01461029e57610109565b806308ee2d721461010e5780630bacd0c41461014b5780630ca7091414610188578063115e647b146101b3575b600080fd5b34801561011a57600080fd5b50610135600480360381019061013091906117a1565b61044d565b60405161014291906117dd565b60405180910390f35b34801561015757600080fd5b50610172600480360381019061016d919061182e565b61054f565b60405161017f919061186a565b60405180910390f35b34801561019457600080fd5b5061019d610567565b6040516101aa919061186a565b60405180910390f35b3480156101bf57600080fd5b506101da60048036038101906101d591906118bd565b61056d565b005b3480156101e857600080fd5b5061020360048036038101906101fe919061182e565b610910565b005b34801561021157600080fd5b5061021a6109a8565b005b34801561022857600080fd5b50610243600480360381019061023e919061182e565b610a9f565b6040516102589998979695949392919061199c565b60405180910390f35b34801561026d57600080fd5b50610288600480360381019061028391906117a1565b610dc3565b60405161029591906117dd565b60405180910390f35b3480156102aa57600080fd5b506102c560048036038101906102c0919061182e565b610df6565b005b3480156102d357600080fd5b506102ee60048036038101906102e9919061182e565b610fa5565b005b3480156102fc57600080fd5b50610305611168565b604051610312919061186a565b60405180910390f35b34801561032757600080fd5b50610342600480360381019061033d91906117a1565b61116f565b005b34801561035057600080fd5b5061036b600480360381019061036691906117a1565b6112b8565b604051610378919061186a565b60405180910390f35b34801561038d57600080fd5b506103a860048036038101906103a3919061182e565b6112d0565b6040516103bb9796959493929190611a3e565b60405180910390f35b6103cc6114d7565b005b3480156103da57600080fd5b506103e36115ff565b6040516103f0919061186a565b60405180910390f35b34801561040557600080fd5b5061040e611605565b60405161041b91906117dd565b60405180910390f35b34801561043057600080fd5b5061044b60048036038101906104469190611bf7565b611629565b005b60008073ffffffffffffffffffffffffffffffffffffffff16600460008473ffffffffffffffffffffffffffffffffffffffff1673ffffffffffffffffffffffffffffffffffffffff16815260200190815260200160002060009054906101000a900473ffffffffffffffffffffffffffffffffffffffff1673ffffffffffffffffffffffffffffffffffffffff16036104e75781610548565b600460008373ffffffffffffffffffffffffffffffffffffffff1673ffffffffffffffffffffffffffffffffffffffff16815260200190815260200160002060009054906101000a900473ffffffffffffffffffffffffffffffffffffffff165b9050919050565b60036020528060005260406000206000915090505481565b60015481565b6000600260008481526020019081526020016000209050600073ffffffffffffffffffffffffffffffffffffffff168160050160009054906101000a900473ffffffffffffffffffffffffffffffffffffffff1673ffffffffffffffffffffffffffffffffffffffff1603610617576040517f08c379a000000000000000000000000000000000000000000000000000000000815260040161060e90611cea565b60405180910390fd5b8060050160149054906101000a900460ff1615610669576040517f08c379a000000000000000000000000000000000000000000000000000000000815260040161066090611d56565b60405180910390fd5b6203f480600360008581526020019081526020016000205461068b9190611da5565b4211156106cd576040517f08c379a00000000000000000000000000000000000000000000000000000000081526004016106c490611e25565b60405180910390fd5b60006106d83361044d565b90508160060160008273ffffffffffffffffffffffffffffffffffffffff1673ffffffffffffffffffffffffffffffffffffffff16815260200190815260200160002060009054906101000a900460ff1615610769576040517f08c379a000000000000000000000000000000000000000000000000000000000815260040161076090611e91565b60405180910390fd5b600654600560008373ffffffffffffffffffffffffffffffffffffffff1673ffffffffffffffffffffffffffffffffffffffff1681526020019081526020016000205410156107ed576040517f08c379a00000000000000000000000000000000000000000000000000000000081526004016107e490611efd565b60405180910390fd5b6000600560008373ffffffffffffffffffffffffffffffffffffffff1673ffffffffffffffffffffffffffffffffffffffff1681526020019081526020016000205490508315610857578083600301600082825461084b9190611da5565b92505081905550610873565b8083600401600082825461086b9190611da5565b925050819055505b60018360060160008473ffffffffffffffffffffffffffffffffffffffff1673ffffffffffffffffffffffffffffffffffffffff16815260200190815260200160002060006101000a81548160ff021916908315150217905550847f7c2de587c00d75474a0c6c6fa96fd3b45dc974cd4e8a75f712bb84c950dce1b583868460405161090193929190611f1d565b60405180910390a25050505050565b60008054906101000a900473ffffffffffffffffffffffffffffffffffffffff1673ffffffffffffffffffffffffffffffffffffffff163373ffffffffffffffffffffffffffffffffffffffff161461099e576040517f08c379a000000000000000000000000000000000000000000000000000000000815260040161099590611fa0565b60405180910390fd5b8060068190555050565b60008054906101000a900473ffffffffffffffffffffffffffffffffffffffff1673ffffffffffffffffffffffffffffffffffffffff163373ffffffffffffffffffffffffffffffffffffffff1614610a36576040517f08c379a0000000000000000000000000000000000000000000000000000000008152600401610a2d90611fa0565b60405180910390fd5b60008054906101000a900473ffffffffffffffffffffffffffffffffffffffff1673ffffffffffffffffffffffffffffffffffffffff166108fc479081150290604051600060405180830381858888f19350505050158015610a9c573d6000803e3d6000fd5b50565b60608060606000806000806000806000600260008c815260200190815260200160002090506000610acf3361044d565b90506203f480600360008e815260200190815260200160002054610af39190611da5565b4211158015610b1157508160050160149054906101000a900460ff16155b9250816000018260010183600201846003015485600401548660050160009054906101000a900473ffffffffffffffffffffffffffffffffffffffff168760050160149054906101000a900460ff168860060160008973ffffffffffffffffffffffffffffffffffffffff1673ffffffffffffffffffffffffffffffffffffffff16815260200190815260200160002060009054906101000a900460ff16158015610bfd5750600654600560008a73ffffffffffffffffffffffffffffffffffffffff1673ffffffffffffffffffffffffffffffffffffffff1681526020019081526020016000205410155b8a888054610c0a90611fef565b80601f0160208091040260200160405190810160405280929190818152602001828054610c3690611fef565b8015610c835780601f10610c5857610100808354040283529160200191610c83565b820191906000526020600020905b815481529060010190602001808311610c6657829003601f168201915b50505050509850878054610c9690611fef565b80601f0160208091040260200160405190810160405280929190818152602001828054610cc290611fef565b8015610d0f5780601f10610ce457610100808354040283529160200191610d0f565b820191906000526020600020905b815481529060010190602001808311610cf257829003601f168201915b50505050509750868054610d2290611fef565b80601f0160208091040260200160405190810160405280929190818152602001828054610d4e90611fef565b8015610d9b5780601f10610d7057610100808354040283529160200191610d9b565b820191906000526020600020905b815481529060010190602001808311610d7e57829003601f168201915b505050505096509a509a509a509a509a509a509a509a509a5050509193959799909294969850565b60046020528060005260406000206000915054906101000a900473ffffffffffffffffffffffffffffffffffffffff1681565b80600560003373ffffffffffffffffffffffffffffffffffffffff1673ffffffffffffffffffffffffffffffffffffffff168152602001908152602001600020541015610e78576040517f08c379a0000000000000000000000000000000000000000000000000000000008152600401610e6f90611efd565b60405180910390fd5b80600560003373ffffffffffffffffffffffffffffffffffffffff1673ffffffffffffffffffffffffffffffffffffffff1681526020019081526020016000206000828254610ec79190612020565b925050819055503373ffffffffffffffffffffffffffffffffffffffff166108fc829081150290604051600060405180830381858888f19350505050158015610f14573d6000803e3d6000fd5b503373ffffffffffffffffffffffffffffffffffffffff167f39df0e5286a3ef2f42a0bf52f32cfe2c58e5b0405f47fe512f2c2439e4cfe204600560003373ffffffffffffffffffffffffffffffffffffffff1673ffffffffffffffffffffffffffffffffffffffff16815260200190815260200160002054604051610f9a919061186a565b60405180910390a250565b60008054906101000a900473ffffffffffffffffffffffffffffffffffffffff1673ffffffffffffffffffffffffffffffffffffffff163373ffffffffffffffffffffffffffffffffffffffff1614611033576040517f08c379a000000000000000000000000000000000000000000000000000000000815260040161102a90611fa0565b60405180910390fd5b60006002600083815260200190815260200160002090508060050160149054906101000a900460ff161561109c576040517f08c379a0000000000000000000000000000000000000000000000000000000008152600401611093906120a0565b60405180910390fd5b6203f48060036000848152602001908152602001600020546110be9190611da5565b42116110ff576040517f08c379a00000000000000000000000000000000000000000000000000000000081526004016110f69061210c565b60405180910390fd5b60018160050160146101000a81548160ff021916908315150217905550600081600401548260030154119050827fc376607d08aab8e39afddbd149fcbefac7c69dcb371a8795626693e5a5a5d10a8260405161115b919061212c565b60405180910390a2505050565b6203f48081565b3373ffffffffffffffffffffffffffffffffffffffff168173ffffffffffffffffffffffffffffffffffffffff16036111dd576040517f08c379a00000000000000000000000000000000000000000000000000000000081526004016111d490612193565b60405180910390fd5b80600460003373ffffffffffffffffffffffffffffffffffffffff1673ffffffffffffffffffffffffffffffffffffffff16815260200190815260200160002060006101000a81548173ffffffffffffffffffffffffffffffffffffffff021916908373ffffffffffffffffffffffffffffffffffffffff1602179055508073ffffffffffffffffffffffffffffffffffffffff163373ffffffffffffffffffffffffffffffffffffffff167fa0ff2fa6909fe4ddd94349fc9d8e2932f3dfe666216f3cc2aa3a72f5a03b655e60405160405180910390a350565b60056020528060005260406000206000915090505481565b60026020528060005260406000206000915090508060000180546112f390611fef565b80601f016020809104026020016040519081016040528092919081815260200182805461131f90611fef565b801561136c5780601f106113415761010080835404028352916020019161136c565b820191906000526020600020905b81548152906001019060200180831161134f57829003601f168201915b50505050509080600101805461138190611fef565b80601f01602080910402602001604051908101604052809291908181526020018280546113ad90611fef565b80156113fa5780601f106113cf576101008083540402835291602001916113fa565b820191906000526020600020905b8154815290600101906020018083116113dd57829003601f168201915b50505050509080600201805461140f90611fef565b80601f016020809104026020016040519081016040528092919081815260200182805461143b90611fef565b80156114885780601f1061145d57610100808354040283529160200191611488565b820191906000526020600020905b81548152906001019060200180831161146b57829003601f168201915b5050505050908060030154908060040154908060050160009054906101000a900473ffffffffffffffffffffffffffffffffffffffff16908060050160149054906101000a900460ff16905087565b6000341161151a576040517f08c379a0000000000000000000000000000000000000000000000000000000008152600401611511906121ff565b60405180910390fd5b34600560003373ffffffffffffffffffffffffffffffffffffffff1673ffffffffffffffffffffffffffffffffffffffff16815260200190815260200160002060008282546115699190611da5565b925050819055503373ffffffffffffffffffffffffffffffffffffffff167f39df0e5286a3ef2f42a0bf52f32cfe2c58e5b0405f47fe512f2c2439e4cfe204600560003373ffffffffffffffffffffffffffffffffffffffff1673ffffffffffffffffffffffffffffffffffffffff168152602001908152602001600020546040516115f5919061186a565b60405180910390a2565b60065481565b60008054906101000a900473ffffffffffffffffffffffffffffffffffffffff1681565b600060026000600154815260200190815260200160002090508381600001908161165391906123cb565b508281600101908161166591906123cb565b508181600201908161167791906123cb565b50338160050160006101000a81548173ffffffffffffffffffffffffffffffffffffffff021916908373ffffffffffffffffffffffffffffffffffffffff16021790555042600360006001548152602001908152602001600020819055506001547ff41ea29a335564573dd96630877e28e7529614e42115e1667bb721cb1a8bd0b0853360405161170992919061249d565b60405180910390a260016000815480929190611724906124cd565b919050555050505050565b6000604051905090565b600080fd5b600080fd5b600073ffffffffffffffffffffffffffffffffffffffff82169050919050565b600061176e82611743565b9050919050565b61177e81611763565b811461178957600080fd5b50565b60008135905061179b81611775565b92915050565b6000602082840312156117b7576117b6611739565b5b60006117c58482850161178c565b91505092915050565b6117d781611763565b82525050565b60006020820190506117f260008301846117ce565b92915050565b6000819050919050565b61180b816117f8565b811461181657600080fd5b50565b60008135905061182881611802565b92915050565b60006020828403121561184457611843611739565b5b600061185284828501611819565b91505092915050565b611864816117f8565b82525050565b600060208201905061187f600083018461185b565b92915050565b60008115159050919050565b61189a81611885565b81146118a557600080fd5b50565b6000813590506118b781611891565b92915050565b600080604083850312156118d4576118d3611739565b5b60006118e285828601611819565b92505060206118f3858286016118a8565b9150509250929050565b600081519050919050565b600082825260208201905092915050565b60005b8381101561193757808201518184015260208101905061191c565b60008484015250505050565b6000601f19601f8301169050919050565b600061195f826118fd565b6119698185611908565b9350611979818560208601611919565b61198281611943565b840191505092915050565b61199681611885565b82525050565b60006101208201905081810360008301526119b7818c611954565b905081810360208301526119cb818b611954565b905081810360408301526119df818a611954565b90506119ee606083018961185b565b6119fb608083018861185b565b611a0860a08301876117ce565b611a1560c083018661198d565b611a2260e083018561198d565b611a3061010083018461198d565b9a9950505050505050505050565b600060e0820190508181036000830152611a58818a611954565b90508181036020830152611a6c8189611954565b90508181036040830152611a808188611954565b9050611a8f606083018761185b565b611a9c608083018661185b565b611aa960a08301856117ce565b611ab660c083018461198d565b98975050505050505050565b600080fd5b600080fd5b7f4e487b7100000000000000000000000000000000000000000000000000000000600052604160045260246000fd5b611b0482611943565b810181811067ffffffffffffffff82111715611b2357611b22611acc565b5b80604052505050565b6000611b3661172f565b9050611b428282611afb565b919050565b600067ffffffffffffffff821115611b6257611b61611acc565b5b611b6b82611943565b9050602081019050919050565b82818337600083830152505050565b6000611b9a611b9584611b47565b611b2c565b905082815260208101848484011115611bb657611bb5611ac7565b5b611bc1848285611b78565b509392505050565b600082601f830112611bde57611bdd611ac2565b5b8135611bee848260208601611b87565b91505092915050565b600080600060608486031215611c1057611c0f611739565b5b600084013567ffffffffffffffff811115611c2e57611c2d61173e565b5b611c3a86828701611bc9565b935050602084013567ffffffffffffffff811115611c5b57611c5a61173e565b5b611c6786828701611bc9565b925050604084013567ffffffffffffffff811115611c8857611c8761173e565b5b611c9486828701611bc9565b9150509250925092565b7f5265706f727420646f65736e2774206578697374000000000000000000000000600082015250565b6000611cd4601483611908565b9150611cdf82611c9e565b602082019050919050565b60006020820190508181036000830152611d0381611cc7565b9050919050565b7f566f74696e6720636c6f73656400000000000000000000000000000000000000600082015250565b6000611d40600d83611908565b9150611d4b82611d0a565b602082019050919050565b60006020820190508181036000830152611d6f81611d33565b9050919050565b7f4e487b7100000000000000000000000000000000000000000000000000000000600052601160045260246000fd5b6000611db0826117f8565b9150611dbb836117f8565b9250828201905080821115611dd357611dd2611d76565b5b92915050565b7f566f74696e6720706572696f6420656e64656400000000000000000000000000600082015250565b6000611e0f601383611908565b9150611e1a82611dd9565b602082019050919050565b60006020820190508181036000830152611e3e81611e02565b9050919050565b7f416c726561647920766f74656400000000000000000000000000000000000000600082015250565b6000611e7b600d83611908565b9150611e8682611e45565b602082019050919050565b60006020820190508181036000830152611eaa81611e6e565b9050919050565b7f496e73756666696369656e74207374616b650000000000000000000000000000600082015250565b6000611ee7601283611908565b9150611ef282611eb1565b602082019050919050565b60006020820190508181036000830152611f1681611eda565b9050919050565b6000606082019050611f3260008301866117ce565b611f3f602083018561198d565b611f4c604083018461185b565b949350505050565b7f4f6e6c792061646d696e00000000000000000000000000000000000000000000600082015250565b6000611f8a600a83611908565b9150611f9582611f54565b602082019050919050565b60006020820190508181036000830152611fb981611f7d565b9050919050565b7f4e487b7100000000000000000000000000000000000000000000000000000000600052602260045260246000fd5b6000600282049050600182168061200757607f821691505b60208210810361201a57612019611fc0565b5b50919050565b600061202b826117f8565b9150612036836117f8565b925082820390508181111561204e5761204d611d76565b5b92915050565b7f416c7265616479207265736f6c76656400000000000000000000000000000000600082015250565b600061208a601083611908565b915061209582612054565b602082019050919050565b600060208201905081810360008301526120b98161207d565b9050919050565b7f566f74696e67207374696c6c206f70656e000000000000000000000000000000600082015250565b60006120f6601183611908565b9150612101826120c0565b602082019050919050565b60006020820190508181036000830152612125816120e9565b9050919050565b6000602082019050612141600083018461198d565b92915050565b7f43616e6e6f742064656c656761746520746f2073656c66000000000000000000600082015250565b600061217d601783611908565b915061218882612147565b602082019050919050565b600060208201905081810360008301526121ac81612170565b9050919050565b7f4d7573742073656e642045544800000000000000000000000000000000000000600082015250565b60006121e9600d83611908565b91506121f4826121b3565b602082019050919050565b60006020820190508181036000830152612218816121dc565b9050919050565b60008190508160005260206000209050919050565b60006020601f8301049050919050565b600082821b905092915050565b6000600883026122817fffffffffffffffffffffffffffffffffffffffffffffffffffffffffffffffff82612244565b61228b8683612244565b95508019841693508086168417925050509392505050565b6000819050919050565b60006122c86122c36122be846117f8565b6122a3565b6117f8565b9050919050565b6000819050919050565b6122e2836122ad565b6122f66122ee826122cf565b848454612251565b825550505050565b600090565b61230b6122fe565b6123168184846122d9565b505050565b5b8181101561233a5761232f600082612303565b60018101905061231c565b5050565b601f82111561237f576123508161221f565b61235984612234565b81016020851015612368578190505b61237c61237485612234565b83018261231b565b50505b505050565b600082821c905092915050565b60006123a260001984600802612384565b1980831691505092915050565b60006123bb8383612391565b9150826002028217905092915050565b6123d4826118fd565b67ffffffffffffffff8111156123ed576123ec611acc565b5b6123f78254611fef565b61240282828561233e565b600060209050601f8311600181146124355760008415612423578287015190505b61242d85826123af565b865550612495565b601f1984166124438661221f565b60005b8281101561246b57848901518255600182019150602085019450602081019050612446565b868310156124885784890151612484601f891682612391565b8355505b6001600288020188555050505b505050505050565b600060408201905081810360008301526124b78185611954565b90506124c660208301846117ce565b9392505050565b60006124d8826117f8565b91507fffffffffffffffffffffffffffffffffffffffffffffffffffffffffffffffff820361250a57612509611d76565b5b60018201905091905056fea26469706673582212209a0be7ea291bbed4d2505c5eb82aa953130adbf6ccae4651e7edc1117c23c2e164736f6c63430008130033",
  "linkReferences": {},
  "deployedLinkReferences": {}
}