{
  "_format": "hh-sol-artifact-1",
  "contractName": "DaoVoting",
  "sourceName": "contracts/DaoVoting.sol",
  "abi": [
    {
      "inputs": [],
      "stateMutability": "nonpayable",
      "type": "constructor"
    },
    {
      "anonymous": false,
      "inputs": [
        {
          "indexed": true,
          "internalType": "uint256",
          "name": "id",
          "type": "uint256"
        },
        {
          "indexed": false,
          "internalType": "bool",
          "name": "approved",
          "type": "bool"
        }
      ],
      "name": "ReportResolved",
      "type": "event"
    },
    {
      "anonymous": false,
      "inputs": [
        {
          "indexed": true,
          "internalType": "uint256",
          "name": "id",
          "type": "uint256"
        },
        {
          "indexed": false,
          "internalType": "string",
          "name": "description",
          "type": "string"
        },
        {
          "indexed": false,
          "internalType": "address",
          "name": "submitter",
          "type": "address"
        }
      ],
      "name": "ReportSubmitted",
      "type": "event"
    },
    {
      "anonymous": false,
      "inputs": [
        {
          "indexed": true,
          "internalType": "uint256",
          "name": "id",
          "type": "uint256"
        },
        {
          "indexed": false,
          "internalType": "address",
          "name": "voter",
          "type": "address"
        },
        {
          "indexed": false,
          "internalType": "bool",
          "name": "voteYes",
          "type": "bool"
        }
      ],
      "name": "Voted",
      "type": "event"
    },
    {
      "inputs": [],
      "name": "admin",
      "outputs": [
        {
          "internalType": "address",
          "name": "",
          "type": "address"
        }
      ],
      "stateMutability": "view",
      "type": "function"
    },
    {
      "inputs": [
        {
          "internalType": "uint256",
          "name": "_id",
          "type": "uint256"
        }
      ],
      "name": "getReport",
      "outputs": [
        {
          "internalType": "string",
          "name": "description",
          "type": "string"
        },
        {
          "internalType": "uint256",
          "name": "yesVotes",
          "type": "uint256"
        },
        {
          "internalType": "uint256",
          "name": "noVotes",
          "type": "uint256"
        },
        {
          "internalType": "address",
          "name": "submitter",
          "type": "address"
        },
        {
          "internalType": "bool",
          "name": "resolved",
          "type": "bool"
        },
        {
          "internalType": "bool",
          "name": "canVote",
          "type": "bool"
        },
        {
          "internalType": "bool",
          "name": "isVotingOpen",
          "type": "bool"
        }
      ],
      "stateMutability": "view",
      "type": "function"
    },
    {
      "inputs": [],
      "name": "reportId",
      "outputs": [
        {
          "internalType": "uint256",
          "name": "",
          "type": "uint256"
        }
      ],
      "stateMutability": "view",
      "type": "function"
    },
    {
      "inputs": [
        {
          "internalType": "uint256",
          "name": "",
          "type": "uint256"
        }
      ],
      "name": "reportTimestamps",
      "outputs": [
        {
          "internalType": "uint256",
          "name": "",
          "type": "uint256"
        }
      ],
      "stateMutability": "view",
      "type": "function"
    },
    {
      "inputs": [
        {
          "internalType": "uint256",
          "name": "",
          "type": "uint256"
        }
      ],
      "name": "reports",
      "outputs": [
        {
          "internalType": "string",
          "name": "description",
          "type": "string"
        },
        {
          "internalType": "uint256",
          "name": "yesVotes",
          "type": "uint256"
        },
        {
          "internalType": "uint256",
          "name": "noVotes",
          "type": "uint256"
        },
        {
          "internalType": "address",
          "name": "submitter",
          "type": "address"
        },
        {
          "internalType": "bool",
          "name": "resolved",
          "type": "bool"
        }
      ],
      "stateMutability": "view",
      "type": "function"
    },
    {
      "inputs": [
        {
          "internalType": "uint256",
          "name": "_id",
          "type": "uint256"
        }
      ],
      "name": "resolveReport",
      "outputs": [],
      "stateMutability": "nonpayable",
      "type": "function"
    },
    {
      "inputs": [
        {
          "internalType": "string",
          "name": "_description",
          "type": "string"
        }
      ],
      "name": "submitReport",
      "outputs": [],
      "stateMutability": "nonpayable",
      "type": "function"
    },
    {
      "inputs": [
        {
          "internalType": "uint256",
          "name": "_id",
          "type": "uint256"
        },
        {
          "internalType": "bool",
          "name": "_voteYes",
          "type": "bool"
        }
      ],
      "name": "voteOnReport",
      "outputs": [],
      "stateMutability": "nonpayable",
      "type": "function"
    },
    {
      "inputs": [],
      "name": "votingPeriod",
      "outputs": [
        {
          "internalType": "uint256",
          "name": "",
          "type": "uint256"
        }
      ],
      "stateMutability": "view",
      "type": "function"
    }
  ],
  "bytecode": "0x60806040526203f48060025534801561001757600080fd5b50336000806101000a81548173ffffffffffffffffffffffffffffffffffffffff021916908373ffffffffffffffffffffffffffffffffffffffff160217905550611645806100676000396000f3fe608060405234801561001057600080fd5b50600436106100935760003560e01c80634e7f9b19116100665780634e7f9b1914610120578063635ac1ed146101565780636dfa5e6114610172578063c942adf71461018e578063f851a440146101c257610093565b806302a251a3146100985780630bacd0c4146100b65780630ca70914146100e6578063115e647b14610104575b600080fd5b6100a06101e0565b6040516100ad9190610ad5565b60405180910390f35b6100d060048036038101906100cb9190610b30565b6101e6565b6040516100dd9190610ad5565b60405180910390f35b6100ee6101fe565b6040516100fb9190610ad5565b60405180910390f35b61011e60048036038101906101199190610b95565b610204565b005b61013a60048036038101906101359190610b30565b61051f565b60405161014d9796959493929190610cb5565b60405180910390f35b610170600480360381019061016b9190610e60565b6106be565b005b61018c60048036038101906101879190610b30565b6107bb565b005b6101a860048036038101906101a39190610b30565b6109ad565b6040516101b9959493929190610ea9565b60405180910390f35b6101ca610a98565b6040516101d79190610f03565b60405180910390f35b60025481565b60046020528060005260406000206000915090505481565b60015481565b600073ffffffffffffffffffffffffffffffffffffffff166003600084815260200190815260200160002060030160009054906101000a900473ffffffffffffffffffffffffffffffffffffffff1673ffffffffffffffffffffffffffffffffffffffff16036102a9576040517f08c379a00000000000000000000000000000000000000000000000000000000081526004016102a090610f6a565b60405180910390fd5b6003600083815260200190815260200160002060040160003373ffffffffffffffffffffffffffffffffffffffff1673ffffffffffffffffffffffffffffffffffffffff16815260200190815260200160002060009054906101000a900460ff161561034a576040517f08c379a000000000000000000000000000000000000000000000000000000000815260040161034190610fd6565b60405180910390fd5b6003600083815260200190815260200160002060030160149054906101000a900460ff16156103ae576040517f08c379a00000000000000000000000000000000000000000000000000000000081526004016103a590611042565b60405180910390fd5b60025460046000848152602001908152602001600020546103cf9190611091565b421115610411576040517f08c379a000000000000000000000000000000000000000000000000000000000815260040161040890611111565b60405180910390fd5b80156104485760036000838152602001908152602001600020600101600081548092919061043e90611131565b9190505550610475565b60036000838152602001908152602001600020600201600081548092919061046f90611131565b91905055505b60016003600084815260200190815260200160002060040160003373ffffffffffffffffffffffffffffffffffffffff1673ffffffffffffffffffffffffffffffffffffffff16815260200190815260200160002060006101000a81548160ff021916908315150217905550817ff2913dbe661ee2acc4a046d8fbcdc792373bda34c41c6086484b5345e5785e5f3383604051610513929190611179565b60405180910390a25050565b60606000806000806000806000600360008a81526020019081526020016000209050600254600460008b8152602001908152602001600020546105629190611091565b421115801561058057508060030160149054906101000a900460ff16155b915080600001816001015482600201548360030160009054906101000a900473ffffffffffffffffffffffffffffffffffffffff168460030160149054906101000a900460ff168560040160003373ffffffffffffffffffffffffffffffffffffffff1673ffffffffffffffffffffffffffffffffffffffff16815260200190815260200160002060009054906101000a900460ff161587868054610624906111d1565b80601f0160208091040260200160405190810160405280929190818152602001828054610650906111d1565b801561069d5780601f106106725761010080835404028352916020019161069d565b820191906000526020600020905b81548152906001019060200180831161068057829003601f168201915b50505050509650975097509750975097509750975050919395979092949650565b60006003600060015481526020019081526020016000209050818160000190816106e891906113ae565b50338160030160006101000a81548173ffffffffffffffffffffffffffffffffffffffff021916908373ffffffffffffffffffffffffffffffffffffffff16021790555060008160030160146101000a81548160ff02191690831515021790555042600460006001548152602001908152602001600020819055506001547ff41ea29a335564573dd96630877e28e7529614e42115e1667bb721cb1a8bd0b08333604051610797929190611480565b60405180910390a2600160008154809291906107b290611131565b91905055505050565b60008054906101000a900473ffffffffffffffffffffffffffffffffffffffff1673ffffffffffffffffffffffffffffffffffffffff163373ffffffffffffffffffffffffffffffffffffffff1614610849576040517f08c379a0000000000000000000000000000000000000000000000000000000008152600401610840906114fc565b60405180910390fd5b6003600082815260200190815260200160002060030160149054906101000a900460ff16156108ad576040517f08c379a00000000000000000000000000000000000000000000000000000000081526004016108a490611568565b60405180910390fd5b60025460046000838152602001908152602001600020546108ce9190611091565b421161090f576040517f08c379a0000000000000000000000000000000000000000000000000000000008152600401610906906115d4565b60405180910390fd5b60016003600083815260200190815260200160002060030160146101000a81548160ff021916908315150217905550600060036000838152602001908152602001600020600201546003600084815260200190815260200160002060010154119050817fc376607d08aab8e39afddbd149fcbefac7c69dcb371a8795626693e5a5a5d10a826040516109a191906115f4565b60405180910390a25050565b60036020528060005260406000206000915090508060000180546109d0906111d1565b80601f01602080910402602001604051908101604052809291908181526020018280546109fc906111d1565b8015610a495780601f10610a1e57610100808354040283529160200191610a49565b820191906000526020600020905b815481529060010190602001808311610a2c57829003601f168201915b5050505050908060010154908060020154908060030160009054906101000a900473ffffffffffffffffffffffffffffffffffffffff16908060030160149054906101000a900460ff16905085565b60008054906101000a900473ffffffffffffffffffffffffffffffffffffffff1681565b6000819050919050565b610acf81610abc565b82525050565b6000602082019050610aea6000830184610ac6565b92915050565b6000604051905090565b600080fd5b600080fd5b610b0d81610abc565b8114610b1857600080fd5b50565b600081359050610b2a81610b04565b92915050565b600060208284031215610b4657610b45610afa565b5b6000610b5484828501610b1b565b91505092915050565b60008115159050919050565b610b7281610b5d565b8114610b7d57600080fd5b50565b600081359050610b8f81610b69565b92915050565b60008060408385031215610bac57610bab610afa565b5b6000610bba85828601610b1b565b9250506020610bcb85828601610b80565b9150509250929050565b600081519050919050565b600082825260208201905092915050565b60005b83811015610c0f578082015181840152602081019050610bf4565b60008484015250505050565b6000601f19601f8301169050919050565b6000610c3782610bd5565b610c418185610be0565b9350610c51818560208601610bf1565b610c5a81610c1b565b840191505092915050565b600073ffffffffffffffffffffffffffffffffffffffff82169050919050565b6000610c9082610c65565b9050919050565b610ca081610c85565b82525050565b610caf81610b5d565b82525050565b600060e0820190508181036000830152610ccf818a610c2c565b9050610cde6020830189610ac6565b610ceb6040830188610ac6565b610cf86060830187610c97565b610d056080830186610ca6565b610d1260a0830185610ca6565b610d1f60c0830184610ca6565b98975050505050505050565b600080fd5b600080fd5b7f4e487b7100000000000000000000000000000000000000000000000000000000600052604160045260246000fd5b610d6d82610c1b565b810181811067ffffffffffffffff82111715610d8c57610d8b610d35565b5b80604052505050565b6000610d9f610af0565b9050610dab8282610d64565b919050565b600067ffffffffffffffff821115610dcb57610dca610d35565b5b610dd482610c1b565b9050602081019050919050565b82818337600083830152505050565b6000610e03610dfe84610db0565b610d95565b905082815260208101848484011115610e1f57610e1e610d30565b5b610e2a848285610de1565b509392505050565b600082601f830112610e4757610e46610d2b565b5b8135610e57848260208601610df0565b91505092915050565b600060208284031215610e7657610e75610afa565b5b600082013567ffffffffffffffff811115610e9457610e93610aff565b5b610ea084828501610e32565b91505092915050565b600060a0820190508181036000830152610ec38188610c2c565b9050610ed26020830187610ac6565b610edf6040830186610ac6565b610eec6060830185610c97565b610ef96080830184610ca6565b9695505050505050565b6000602082019050610f186000830184610c97565b92915050565b7f5265706f727420646f65736e2774206578697374000000000000000000000000600082015250565b6000610f54601483610be0565b9150610f5f82610f1e565b602082019050919050565b60006020820190508181036000830152610f8381610f47565b9050919050565b7f416c726561647920766f74656400000000000000000000000000000000000000600082015250565b6000610fc0600d83610be0565b9150610fcb82610f8a565b602082019050919050565b60006020820190508181036000830152610fef81610fb3565b9050919050565b7f566f74696e6720636c6f73656400000000000000000000000000000000000000600082015250565b600061102c600d83610be0565b915061103782610ff6565b602082019050919050565b6000602082019050818103600083015261105b8161101f565b9050919050565b7f4e487b7100000000000000000000000000000000000000000000000000000000600052601160045260246000fd5b600061109c82610abc565b91506110a783610abc565b92508282019050808211156110bf576110be611062565b5b92915050565b7f566f74696e6720706572696f6420656e64656400000000000000000000000000600082015250565b60006110fb601383610be0565b9150611106826110c5565b602082019050919050565b6000602082019050818103600083015261112a816110ee565b9050919050565b600061113c82610abc565b91507fffffffffffffffffffffffffffffffffffffffffffffffffffffffffffffffff820361116e5761116d611062565b5b600182019050919050565b600060408201905061118e6000830185610c97565b61119b6020830184610ca6565b9392505050565b7f4e487b7100000000000000000000000000000000000000000000000000000000600052602260045260246000fd5b600060028204905060018216806111e957607f821691505b6020821081036111fc576111fb6111a2565b5b50919050565b60008190508160005260206000209050919050565b60006020601f8301049050919050565b600082821b905092915050565b6000600883026112647fffffffffffffffffffffffffffffffffffffffffffffffffffffffffffffffff82611227565b61126e8683611227565b95508019841693508086168417925050509392505050565b6000819050919050565b60006112ab6112a66112a184610abc565b611286565b610abc565b9050919050565b6000819050919050565b6112c583611290565b6112d96112d1826112b2565b848454611234565b825550505050565b600090565b6112ee6112e1565b6112f98184846112bc565b505050565b5b8181101561131d576113126000826112e6565b6001810190506112ff565b5050565b601f8211156113625761133381611202565b61133c84611217565b8101602085101561134b578190505b61135f61135785611217565b8301826112fe565b50505b505050565b600082821c905092915050565b600061138560001984600802611367565b1980831691505092915050565b600061139e8383611374565b9150826002028217905092915050565b6113b782610bd5565b67ffffffffffffffff8111156113d0576113cf610d35565b5b6113da82546111d1565b6113e5828285611321565b600060209050601f8311600181146114185760008415611406578287015190505b6114108582611392565b865550611478565b601f19841661142686611202565b60005b8281101561144e57848901518255600182019150602085019450602081019050611429565b8683101561146b5784890151611467601f891682611374565b8355505b6001600288020188555050505b505050505050565b6000604082019050818103600083015261149a8185610c2c565b90506114a96020830184610c97565b9392505050565b7f4f6e6c792061646d696e00000000000000000000000000000000000000000000600082015250565b60006114e6600a83610be0565b91506114f1826114b0565b602082019050919050565b60006020820190508181036000830152611515816114d9565b9050919050565b7f416c7265616479207265736f6c76656400000000000000000000000000000000600082015250565b6000611552601083610be0565b915061155d8261151c565b602082019050919050565b6000602082019050818103600083015261158181611545565b9050919050565b7f566f74696e67207374696c6c206f70656e000000000000000000000000000000600082015250565b60006115be601183610be0565b91506115c982611588565b602082019050919050565b600060208201905081810360008301526115ed816115b1565b9050919050565b60006020820190506116096000830184610ca6565b9291505056fea26469706673582212206aee98b663ec1ea22cad0880261768cc01ec0b70c436142bc5530886b058e87d64736f6c63430008130033",
  "linkReferences": {},
  "deployedLinkReferences": {}
}